{
  "_format": "hh3-artifact-1",
  "contractName": "ImplementationDeployer",
  "sourceName": "contracts/factory/ImplementationDeployer.sol",
  "abi": [
    {
      "inputs": [],
      "name": "Create2EmptyBytecode",
      "type": "error"
    },
    {
      "inputs": [],
      "name": "FailedDeployment",
      "type": "error"
    },
    {
      "inputs": [
        {
          "internalType": "uint256",
          "name": "balance",
          "type": "uint256"
        },
        {
          "internalType": "uint256",
          "name": "needed",
          "type": "uint256"
        }
      ],
      "name": "InsufficientBalance",
      "type": "error"
    },
    {
      "anonymous": false,
      "inputs": [
        {
          "indexed": true,
          "internalType": "address",
          "name": "factory",
          "type": "address"
        },
        {
          "indexed": true,
          "internalType": "address",
          "name": "implementation",
          "type": "address"
        },
        {
          "indexed": false,
          "internalType": "address",
          "name": "protocol",
          "type": "address"
        },
        {
          "indexed": false,
          "internalType": "bytes32",
          "name": "salt",
          "type": "bytes32"
        }
      ],
      "name": "FactoryDeployed",
      "type": "event"
    },
    {
      "anonymous": false,
      "inputs": [
        {
          "indexed": true,
          "internalType": "address",
          "name": "implementation",
          "type": "address"
        },
        {
          "indexed": true,
          "internalType": "address",
          "name": "entryPoint",
          "type": "address"
        },
        {
          "indexed": false,
          "internalType": "bytes32",
          "name": "salt",
          "type": "bytes32"
        }
      ],
      "name": "ImplementationDeployed",
      "type": "event"
    },
    {
      "inputs": [
        {
          "internalType": "address",
          "name": "entryPoint",
          "type": "address"
        },
        {
          "internalType": "address",
          "name": "protocol",
          "type": "address"
        },
        {
          "internalType": "bytes32",
          "name": "implementationSalt",
          "type": "bytes32"
        },
        {
          "internalType": "bytes32",
          "name": "factorySalt",
          "type": "bytes32"
        }
      ],
      "name": "deployAll",
      "outputs": [
        {
          "internalType": "address",
          "name": "implementation",
          "type": "address"
        },
        {
          "internalType": "address",
          "name": "factory",
          "type": "address"
        }
      ],
      "stateMutability": "nonpayable",
      "type": "function"
    },
    {
      "inputs": [
        {
          "internalType": "address",
          "name": "implementation",
          "type": "address"
        },
        {
          "internalType": "address",
          "name": "entryPoint",
          "type": "address"
        },
        {
          "internalType": "address",
          "name": "protocol",
          "type": "address"
        },
        {
          "internalType": "bytes32",
          "name": "salt",
          "type": "bytes32"
        }
      ],
      "name": "deployFactory",
      "outputs": [
        {
          "internalType": "address",
          "name": "",
          "type": "address"
        }
      ],
      "stateMutability": "nonpayable",
      "type": "function"
    },
    {
      "inputs": [
        {
          "internalType": "address",
          "name": "entryPoint",
          "type": "address"
        },
        {
          "internalType": "bytes32",
          "name": "salt",
          "type": "bytes32"
        }
      ],
      "name": "deployImplementation",
      "outputs": [
        {
          "internalType": "address",
          "name": "",
          "type": "address"
        }
      ],
      "stateMutability": "nonpayable",
      "type": "function"
    },
    {
      "inputs": [
        {
          "internalType": "address",
          "name": "implementation",
          "type": "address"
        },
        {
          "internalType": "address",
          "name": "entryPoint",
          "type": "address"
        },
        {
          "internalType": "address",
          "name": "protocol",
          "type": "address"
        },
        {
          "internalType": "bytes32",
          "name": "salt",
          "type": "bytes32"
        }
      ],
      "name": "getFactoryAddress",
      "outputs": [
        {
          "internalType": "address",
          "name": "",
          "type": "address"
        }
      ],
      "stateMutability": "view",
      "type": "function"
    },
    {
      "inputs": [
        {
          "internalType": "address",
          "name": "entryPoint",
          "type": "address"
        },
        {
          "internalType": "bytes32",
          "name": "salt",
          "type": "bytes32"
        }
      ],
      "name": "getImplementationAddress",
      "outputs": [
        {
          "internalType": "address",
          "name": "",
          "type": "address"
        }
      ],
      "stateMutability": "view",
      "type": "function"
    }
  ],
  "bytecode": "0x60808060405234601557612da5908161001a8239f35b5f80fdfe60806040526004361015610011575f80fd5b5f3560e01c80630689a09b146101265780631b32f741146100ff578063603a05ee146100e357806388382981146100b55763c57ed41314610050575f80fd5b346100b15760803660031901126100b15761006961014d565b6024356001600160a01b03811681036100b15761009960409261008e604435826102be565b92606435918461039c565b82516001600160a01b03928316815291166020820152f35b5f80fd5b346100b15760206100d16100c836610163565b929190916104dc565b6040516001600160a01b039091168152f35b346100b15760206100d16100f636610163565b9291909161039c565b346100b15760403660031901126100b15760206100d161011d61014d565b602435906102be565b346100b15760403660031901126100b15760206100d161014461014d565b602435906101e7565b600435906001600160a01b03821682036100b157565b60809060031901126100b1576004356001600160a01b03811681036100b157906024356001600160a01b03811681036100b157906044356001600160a01b03811681036100b1579060643590565b90601f8019910116810190811067ffffffffffffffff8211176101d357604052565b634e487b7160e01b5f52604160045260245ffd5b60405161026f9291610265611dce61020260208201856101b1565b80845260208401906105c08239604080516001600160a01b0390941660208581019182528086529161023490866101b1565b60405194859383850197518091895e840190838201905f8252519283915e01015f815203601f1981018352826101b1565b5190203091610541565b90565b1561027957565b60405162461bcd60e51b815260206004820152601a60248201527f496e76616c696420656e747279506f696e7420616464726573730000000000006044820152606490fd5b6001600160a01b038116906102df9083906102da841515610272565b6101e7565b803b610396575061035b611dce6103556040516102ff60208401826101b1565b82815260208101926105c084396020604051818101908782528281526103266040826101b1565b6040519586945180918587015e840190838201905f8252519283915e01015f815203601f1981018352826101b1565b8361056a565b604051928352916001600160a01b038316907fc7250f7106b4aa9b9c1ec4897386956a4be5b991d253a9eb02b23125f0f84e4790602090a390565b91505090565b906103b16001600160a01b0382161515610272565b6001600160a01b038316928315610497576103ce858284866104dc565b803b61048e5750906104416104479260206109e293610433610326604051946103f9858901876101b1565b8786528486019761238e8939604080516001600160a01b03808d168883019081529681166020880152909216908501529182906060850190565b03601f1981018352826101b1565b8461056a565b604080519384526020840194909452926001600160a01b0391821692918416917fa13ebedd3b1296aea8734d5224e62fdeaeb1d7d9888cc8bff3edcc1813a3ea5c9190a390565b94505050505090565b60405162461bcd60e51b815260206004820152601860248201527f496e76616c69642070726f746f636f6c206164647265737300000000000000006044820152606490fd5b9161026561026f949360206109e291610234604051966104fe848601896101b1565b8488528388019461238e8639604080516001600160a01b0394851686820190815292851660208401529790931681840152868103928301875291606001866101b1565b91600b92604051926040840152602083015281520160ff8153605590206001600160a01b031690565b908051156105b0576020815191015ff5903d15198215166105a5576001600160a01b0382161561059657565b63b06ebf3d60e01b5f5260045ffd5b6040513d5f823e3d90fd5b631328927760e21b5f5260045ffdfe60c03461013957601f611dce38819003918201601f19168301916001600160401b0383118484101761013d5780849260209460405283398101031261013957516001600160a01b0381168103610139573060805260a0525f516020611dae5f395f51905f525460ff8160401c1661012a576002600160401b03196001600160401b038216016100d4575b604051611c5c908161015282396080518181816103e301526104f6015260a051818181610241015281816102ed0152818161077f0152818161097301528181610b270152610c860152f35b6001600160401b0319166001600160401b039081175f516020611dae5f395f51905f52556040519081527fc7f505b2f371ae2175ee4913f4499e1f2633a7b5936321eed1cdaeb6115181d290602090a15f610089565b63f92ee8a960e01b5f5260045ffd5b5f80fd5b634e487b7160e01b5f52604160045260245ffdfe608080604052600436101561004d575b50361561001a575f80fd5b604080513381523460208201527f88a5966d370b9919b20f3e2c13ff65706f196a4e32cc2c12bf57088f885258749190a1005b5f3560e01c90816301ffc9a714610bc557508063150b7a0214610b6f5780633a871cdd14610af457806344ab613f1461033657806347e1da2a146108ff578063485cc955146106b15780634f1ef286146104a857806352c64e591461043757806352d1902d146103d15780638ce74426146103a95780638da5cb5b14610382578063ad3cb1cc1461033b578063b0d691fe14610336578063b4644d9f146102d2578063b61d27f614610206578063bc197c811461016e5763f23a6e6114610114575f61000f565b3461016a5760a036600319011261016a5761012d610c18565b50610136610c2e565b506084356001600160401b03811161016a57610156903690600401610c44565b505060405163f23a6e6160e01b8152602090f35b5f80fd5b3461016a5760a036600319011261016a57610187610c18565b50610190610c2e565b506044356001600160401b03811161016a576101b0903690600401610cb5565b50506064356001600160401b03811161016a576101d1903690600401610cb5565b50506084356001600160401b03811161016a576101f2903690600401610c44565b505060405163bc197c8160e01b8152602090f35b3461016a57606036600319011261016a5761021f610c18565b6044356001600160401b03811161016a5761023e903690600401610c44565b917f00000000000000000000000000000000000000000000000000000000000000006001600160a01b031633036102c357825f93928493604051928392833781018481520391602435905af1610292610ecc565b90156102b4576102b090604051918291602083526020830190610ce5565b0390f35b637ff07d0d60e11b5f5260045ffd5b63bd07c55160e01b5f5260045ffd5b3461016a57604036600319011261016a576102eb610c2e565b7f00000000000000000000000000000000000000000000000000000000000000006001600160a01b031633036102c35761032a6102b091600435610fb2565b60405191829182610d09565b610c71565b3461016a575f36600319011261016a576102b060405161035c604082610d68565b60058152640352e302e360dc1b6020820152604051918291602083526020830190610ce5565b3461016a575f36600319011261016a575f546040516001600160a01b039091168152602090f35b3461016a575f36600319011261016a576001546040516001600160a01b039091168152602090f35b3461016a575f36600319011261016a577f00000000000000000000000000000000000000000000000000000000000000006001600160a01b031630036104285760206040515f516020611be75f395f51905f528152f35b63703e46dd60e11b5f5260045ffd5b3461016a57602036600319011261016a576004356001600160401b03811161016a576104696040913690600401610c44565b908092918101031261016a5760208101356001600160a01b038116919082900361016a5760408051913582526001600160a01b03929092166020820152f35b604036600319011261016a576104bc610c18565b6024356001600160401b03811161016a573660238201121561016a576104ec903690602481600401359101610db8565b6001600160a01b037f00000000000000000000000000000000000000000000000000000000000000001630811490811561068f575b50610428575f546001600160a01b031633141580610685575b610676576040516352d1902d60e01b81526001600160a01b0383169290602081600481875afa5f9181610642575b506105805783634c9c8ce360e01b5f5260045260245ffd5b805f516020611be75f395f51905f528592036106305750813b1561061e575f516020611be75f395f51905f5280546001600160a01b031916821790557fbc7cd75a20ee27fd9adebab32041f755214dbc6bffa90cc0225b39da2e5c2d3b5f80a2815115610606575f8083602061060495519101845af46105fe610ecc565b91611b88565b005b50503461060f57005b63b398979f60e01b5f5260045ffd5b634c9c8ce360e01b5f5260045260245ffd5b632a87526960e21b5f5260045260245ffd5b9091506020813d60201161066e575b8161065e60209383610d68565b8101031261016a57519085610568565b3d9150610651565b635fc483c560e01b5f5260045ffd5b503033141561053a565b5f516020611be75f395f51905f52546001600160a01b03161415905083610521565b3461016a57604036600319011261016a576106ca610c18565b6106d2610c2e565b905f516020611c075f395f51905f52549060ff8260401c1615916001600160401b038116801590816108f7575b60011490816108ed575b1590816108e4575b506108d55767ffffffffffffffff1981166001175f516020611c075f395f51905f5255826108a9575b506001600160a01b031691821561086c576001600160a01b03168015610827575f80546001600160a01b031990811685178255600180549091168317905560405193907f00000000000000000000000000000000000000000000000000000000000000006001600160a01b0316907f8617ebbbe27082a6fcca687367faf1c7027f19f15a146f97666e98e614695cb79080a46107d257005b60207fc7f505b2f371ae2175ee4913f4499e1f2633a7b5936321eed1cdaeb6115181d29168ff0000000000000000195f516020611c075f395f51905f5254165f516020611c075f395f51905f525560018152a1005b60405162461bcd60e51b815260206004820152601860248201527f496e76616c69642070726f746f636f6c206164647265737300000000000000006044820152606490fd5b60405162461bcd60e51b8152602060048201526015602482015274496e76616c6964206f776e6572206164647265737360581b6044820152606490fd5b68ffffffffffffffffff191668010000000000000001175f516020611c075f395f51905f52558361073a565b63f92ee8a960e01b5f5260045ffd5b90501585610711565b303b159150610709565b8491506106ff565b3461016a57606036600319011261016a576004356001600160401b03811161016a5761092f903690600401610cb5565b906024356001600160401b03811161016a5761094f903690600401610cb5565b6044356001600160401b03811161016a5761096e903690600401610cb5565b9290917f00000000000000000000000000000000000000000000000000000000000000006001600160a01b031633036102c35780861480610aeb575b15610aae576109b886610e73565b955f5b8181106109d057604051806102b08a82610d09565b6109db818389610ebc565b356001600160a01b038116810361016a576109f7828587610ebc565b3587831015610a9a575f918291610a138560051b8a018a610dee565b9190826040519384928337810185815203925af190610a30610ecc565b9115610a5557600191610a43828b610f18565b52610a4e818a610f18565b50016109bb565b60405162461bcd60e51b815260206004820152601c60248201527f5472616e73616374696f6e20657865637574696f6e206661696c6564000000006044820152606490fd5b634e487b7160e01b5f52603260045260245ffd5b60405162461bcd60e51b8152602060048201526015602482015274082e4e4c2f240d8cadccee8d040dad2e6dac2e8c6d605b1b6044820152606490fd5b508386146109aa565b3461016a57606036600319011261016a576004356001600160401b03811161016a57610160600319823603011261016a577f00000000000000000000000000000000000000000000000000000000000000006001600160a01b031633036102c357610b6760209160243590600401610e20565b604051908152f35b3461016a57608036600319011261016a57610b88610c18565b50610b91610c2e565b506064356001600160401b03811161016a57610bb1903690600401610c44565b5050604051630a85bd0160e11b8152602090f35b3461016a57602036600319011261016a576004359063ffffffff60e01b821680920361016a576020916301ffc9a760e01b8114908115610c07575b5015158152f35b633a871cdd60e01b14905083610c00565b600435906001600160a01b038216820361016a57565b602435906001600160a01b038216820361016a57565b9181601f8401121561016a578235916001600160401b03831161016a576020838186019501011161016a57565b3461016a575f36600319011261016a576040517f00000000000000000000000000000000000000000000000000000000000000006001600160a01b03168152602090f35b9181601f8401121561016a578235916001600160401b03831161016a576020808501948460051b01011161016a57565b805180835260209291819084018484015e5f828201840152601f01601f1916010190565b602081016020825282518091526040820191602060408360051b8301019401925f915b838310610d3b57505050505090565b9091929394602080610d59600193603f198682030187528951610ce5565b97019301930191939290610d2c565b90601f801991011681019081106001600160401b03821117610d8957604052565b634e487b7160e01b5f52604160045260245ffd5b6001600160401b038111610d8957601f01601f191660200190565b929192610dc482610d9d565b91610dd26040519384610d68565b82948184528183011161016a578281602093845f960137010152565b903590601e198136030182121561016a57018035906001600160401b03821161016a5760200191813603831361016a57565b9061014082016020610e328285610dee565b9050145f14610e49575050610e4690611867565b90565b610e5690610e4693610dee565b916117fd565b6001600160401b038111610d895760051b60200190565b90610e7d82610e5c565b610e8a6040519182610d68565b8281528092610e9b601f1991610e5c565b01905f5b828110610eab57505050565b806060602080938501015201610e9f565b9190811015610a9a5760051b0190565b3d15610ef6573d90610edd82610d9d565b91610eeb6040519384610d68565b82523d5f602084013e565b606090565b805115610a9a5760200190565b805160011015610a9a5760400190565b8051821015610a9a5760209160051b010190565b51906001600160a01b038216820361016a57565b51906001600160401b038216820361016a57565b81601f8201121561016a57805190610f6b82610d9d565b92610f796040519485610d68565b8284526020838301011161016a57815f9260208093018386015e8301015290565b9081602091031261016a5751801515810361016a5790565b60015460405163789e235560e11b815260048101839052919391906001600160a01b03165f82602481845afa91821561130d575f9261162b575b5081516001600160a01b0316300361161c57610100820151421161160d576001600160401b0360c08301511646145f14611346575060015460405163030b2cc960e01b8152600481018690526001600160a01b0390911690602081602481855afa90811561130d575f91611327575b501561131857602060249160405192838092636eeee43f60e01b82528960048301525afa90811561130d575f916112de575b506112cf5760e00151908151820191602083019060208185031261016a576020810151906001600160401b03821161016a570181603f8201121561016a576020810151936110da85610e5c565b946110e86040519687610d68565b8086526020808088019260051b850101019284841161016a5760408101915b84831061123e5750505050505061111e8251610e73565b935f5b8351811015611198575f806001600160a01b0361113e8488610f18565b515116602061114d8589610f18565b51015190604061115d868a610f18565b51015191602083519301915af190611173610ecc565b91156102b4576001916111868289610f18565b526111918188610f18565b5001611121565b50600154604051637fed1b6d60e01b60208201908152602482018490526001600160a01b038088166044840152949693955092935f9384939091169183906111ed81606481015b03601f198101835282610d68565b51925af16111f9610ecc565b501561122f576001600160a01b0316907f7609c4682ba7f8b1ce404cb9cba36c78ce48c73460b8c8d57a1daca1842e80e85f80a3565b6369d4fa3b60e01b5f5260045ffd5b82516001600160401b03811161016a5782016020810191906060908603601f19011261016a5760405190606082018281106001600160401b03821117610d895760405261128d60208401610f2c565b8252604083015160208301526060830151916001600160401b03831161016a576112bf89602080969581960101610f54565b6040820152815201920191611107565b631d89003560e01b5f5260045ffd5b611300915060203d602011611306575b6112f88183610d68565b810190610f9a565b5f61108d565b503d6112ee565b6040513d5f823e3d90fd5b63f19ce16160e01b5f5260045ffd5b611340915060203d602011611306576112f88183610d68565b5f61105b565b92935f929192945f5b6080850151805182101561139b576001600160401b03611370834693610f18565b511614611380575b60010161134f565b955060016113928760a0870151610f18565b51969050611378565b505092949093919481156115fe57606001516040516312335b5760e31b81526001600160401b03909116600482015260a081602481865afa801561130d575f90611571575b6020915001906024602060018060a01b03845116604051928380926370a0823160e01b82523060048301525afa801561130d5782915f9161153c575b501061152d57905160405163095ea7b360e01b602082019081526001600160a01b03948516602483015260448201939093525f93849392169190839061146581606481016111df565b51925af191611472610ecc565b92156102b457600154604051631681f46560e01b6020820190815260248201939093526001600160a01b0393841660448201525f9384939216919083906114bc81606481016111df565b51925af16114c8610ecc565b90156102b4576040519160606114de8185610d68565b60028452601f19015f5b81811061151c5750506114fa83610efb565b5261150482610efb565b5061150e82610f08565b5261151881610f08565b5090565b8060606020809388010152016114e8565b63356680b760e01b5f5260045ffd5b9150506020813d602011611569575b8161155860209383610d68565b8101031261016a578190515f61141c565b3d915061154b565b5060a0813d60a0116115f6575b8161158b60a09383610d68565b8101031261016a5760405160a081018181106001600160401b03821117610d89576020926080916040526115be81610f40565b83526115cb848201610f2c565b848401526115db60408201610f2c565b604084015260608101516060840152015160808201526113e0565b3d915061157e565b632539125360e01b5f5260045ffd5b631022c88d60e21b5f5260045ffd5b6322e53e9b60e11b5f5260045ffd5b9091503d805f833e61163d8183610d68565b81019060208183031261016a578051906001600160401b03821161016a5701906101208282031261016a576040519161012083018381106001600160401b03821117610d895760405261168f81610f2c565b835261169d60208201610f40565b60208401526116ae60408201610f40565b60408401526116bf60608201610f40565b606084015260808101516001600160401b03811161016a57810182601f8201121561016a578051906116f082610e5c565b916116fe6040519384610d68565b80835260208084019160051b8301019185831161016a57602001905b8282106117e557505050608084015260a08101516001600160401b03811161016a57810182601f8201121561016a5780519061175582610e5c565b916117636040519384610d68565b80835260208084019160051b8301019185831161016a57602001905b8282106117d55750505060a084015261179a60c08201610f40565b60c084015260e08101516001600160401b03811161016a57610100926117c1918301610f54565b60e08401520151610100820152905f610fec565b815181526020918201910161177f565b602080916117f284610f40565b81520191019061171a565b9161183b6118419261184a947f19457468657265756d205369676e6564204d6573736167653a0a3332000000005f52601c52603c5f20923691610db8565b90611a58565b90929192611a92565b5f546001600160a01b03908116911603611862575f90565b600190565b611875610140820182610dee565b90359060208110611962575b5090811561195b576060810160046118998284610dee565b905010611953576118aa8183610dee565b60041161016a57634b9bb26160e01b90356001600160e01b03191601611953576118d883916118de93610dee565b90611973565b1561194d57600154604051635008dd8d60e01b81526004810192909252306024830152602090829060449082906001600160a01b03165afa90811561130d575f9161192e575b5015611862575f90565b611947915060203d602011611306576112f88183610d68565b5f611924565b50600190565b505050600190565b5050600190565b5f199060200360031b1b165f611881565b91909160448310611a51578260041161016a5760046044604092600319860195845196879485936352c64e5960e01b855260208286015282602486015201848401375f828201860152601b01601f19168101030181305afa90815f935f93611a0f575b506119e2575050505f90565b82149182611a05575b50816119f5575090565b6001600160a01b03161515919050565b151591505f6119eb565b935091506040833d604011611a49575b81611a2c60409383610d68565b8101031261016a57611a42602084519401610f2c565b915f6119d6565b3d9150611a1f565b5050505f90565b8151919060418303611a8857611a819250602082015190606060408401519301515f1a90611b06565b9192909190565b50505f9160029190565b6004811015611af25780611aa4575050565b60018103611abb5763f645eedf60e01b5f5260045ffd5b60028103611ad6575063fce698f760e01b5f5260045260245ffd5b600314611ae05750565b6335e2f38360e21b5f5260045260245ffd5b634e487b7160e01b5f52602160045260245ffd5b91907f7fffffffffffffffffffffffffffffff5d576e7357a4501ddfe92f46681b20a08411611b7d579160209360809260ff5f9560405194855216868401526040830152606082015282805260015afa1561130d575f516001600160a01b03811615611b7357905f905f90565b505f906001905f90565b5050505f9160039190565b90611bac5750805115611b9d57805190602001fd5b63d6bda27560e01b5f5260045ffd5b81511580611bdd575b611bbd575090565b639996b31560e01b5f9081526001600160a01b0391909116600452602490fd5b50803b15611bb556fe360894a13ba1a3210667c828492db98dca3e2076cc3735a920a3ca505d382bbcf0c57e16840df040f15088dc2f81fe391c3923bec73e23a9662efc9c229c6a00a264697066735822122082a8183420be8fa42c4635c4434fbf84665a2433e01cc310d418306b9c0fd91764736f6c634300081c0033f0c57e16840df040f15088dc2f81fe391c3923bec73e23a9662efc9c229c6a0060c0346101fb57601f6109e238819003918201601f19168301916001600160401b038311848410176101ff578084926060946040528339810103126101fb5761004781610213565b90610060604061005960208401610213565b9201610213565b6001600160a01b038316156101b657823b15610167576001600160a01b03821615610122576001600160a01b03169182156100dd5760805260a0525f80546001600160a01b0319169190911790556040516107ba9081610228823960805181818161016f015281816102e501526103f2015260a051816101b30152f35b60405162461bcd60e51b815260206004820152601860248201527f496e76616c69642070726f746f636f6c206164647265737300000000000000006044820152606490fd5b60405162461bcd60e51b815260206004820152601a60248201527f496e76616c696420656e747279506f696e7420616464726573730000000000006044820152606490fd5b60405162461bcd60e51b815260206004820152602160248201527f496d706c656d656e746174696f6e206d757374206265206120636f6e747261636044820152601d60fa1b6064820152608490fd5b60405162461bcd60e51b815260206004820152601e60248201527f496e76616c696420696d706c656d656e746174696f6e206164647265737300006044820152606490fd5b5f80fd5b634e487b7160e01b5f52604160045260245ffd5b51906001600160a01b03821682036101fb5756fe60806040526004361015610011575f80fd5b5f3560e01c806344ab613f1461019e5780635c60da1b1461015a5780638ce74426146100d557806399703adf14610101578063b0d691fe146100fc578063d16352af146100d5578063dbfb8cc0146100ae5763f14ddffc14610071575f80fd5b346100aa5760403660031901126100aa57602061009861008f6101e2565b60243590610373565b6040516001600160a01b039091168152f35b5f80fd5b346100aa5760403660031901126100aa5760206100986100cc6101e2565b6024359061026a565b346100aa575f3660031901126100aa575f546040516001600160a01b039091168152602090f35b61019e565b346100aa5760403660031901126100aa57602061011c6101e2565b604051828101916bffffffffffffffffffffffff199060601b16825260243560348201526034815261014f6054826101f8565b519020604051908152f35b346100aa575f3660031901126100aa576040517f00000000000000000000000000000000000000000000000000000000000000006001600160a01b03168152602090f35b346100aa575f3660031901126100aa576040517f00000000000000000000000000000000000000000000000000000000000000006001600160a01b03168152602090f35b600435906001600160a01b03821682036100aa57565b90601f8019910116810190811067ffffffffffffffff82111761021a57604052565b634e487b7160e01b5f52604160045260245ffd5b6001600160a01b0390911681526040602080830182905283519183018290526060938291018484015e5f828201840152601f01601f1916010190565b5f5460405163485cc95560e01b60208201526001600160a01b03928316602482015291166044820152600b91906102ae81606481015b03601f1981018352826101f8565b6040519061034961029d6102c560208201856101f8565b80845260208401906104e882396020604051936103188561030a848201937f00000000000000000000000000000000000000000000000000000000000000008561022e565b03601f1981018752866101f8565b60405194859383850197518091895e840190838201905f8252519283915e01015f815203601f1981018352826101f8565b5190209060405191604083015260208201523081520160ff8153605590206001600160a01b031690565b9061037e818361026a565b803b6104e157505f5460405163485cc95560e01b60208201526001600160a01b03848116602483015290911660448201526103bc81606481016102a0565b60405161045661029d6103d260208201846101f8565b80835260208301906104e8823960206040519461042586610417848201937f00000000000000000000000000000000000000000000000000000000000000008561022e565b03601f1981018852876101f8565b60405195869383850196518091885e840190838201905f8252519283915e01015f815203601f1981018452836101f8565b8151156104d257829151905ff5913d15198315166104c7576001600160a01b0383169081156104b8576040519283526001600160a01b0316917ff66707ae2820569ece31cb5ac7cfcdd4d076c3f31ed9e28bf94394bedc0f329d90602090a390565b63b06ebf3d60e01b5f5260045ffd5b6040513d5f823e3d90fd5b631328927760e21b5f5260045ffd5b9150509056fe608060405261029d8038038061001481610168565b92833981016040828203126101645781516001600160a01b03811692909190838303610164576020810151906001600160401b03821161016457019281601f8501121561016457835161006e610069826101a1565b610168565b9481865260208601936020838301011161016457815f926020809301865e86010152823b15610152577f360894a13ba1a3210667c828492db98dca3e2076cc3735a920a3ca505d382bbc80546001600160a01b031916821790557fbc7cd75a20ee27fd9adebab32041f755214dbc6bffa90cc0225b39da2e5c2d3b5f80a282511561013a575f8091610122945190845af43d15610132573d91610113610069846101a1565b9283523d5f602085013e6101bc565b505b6040516082908161021b8239f35b6060916101bc565b50505034156101245763b398979f60e01b5f5260045ffd5b634c9c8ce360e01b5f5260045260245ffd5b5f80fd5b6040519190601f01601f191682016001600160401b0381118382101761018d57604052565b634e487b7160e01b5f52604160045260245ffd5b6001600160401b03811161018d57601f01601f191660200190565b906101e057508051156101d157805190602001fd5b63d6bda27560e01b5f5260045ffd5b81511580610211575b6101f1575090565b639996b31560e01b5f9081526001600160a01b0391909116600452602490fd5b50803b156101e956fe60806040527f360894a13ba1a3210667c828492db98dca3e2076cc3735a920a3ca505d382bbc545f9081906001600160a01b0316368280378136915af43d5f803e156048573d5ff35b3d5ffdfea26469706673582212205f975fcec1116362572d861e140e14adc5d9f77b979546d483a6b52f776ec71b64736f6c634300081c0033a2646970667358221220a9a70e064fad295dce431085ef72dd2251b633a4d42d872af0f53a82522fe38264736f6c634300081c0033a264697066735822122058ceb026e5b816de0e8bb93c4296ff8f97ca6274508815aaa43daf6e1957029f64736f6c634300081c0033",
  "linkReferences": {},
  "deployedLinkReferences": {},
  "immutableReferences": {},
  "inputSourceName": "contracts/factory/ImplementationDeployer.sol",
  "buildInfoId": "b20ec109c02637cc894e88cd41f2c69c07fcdc78"
}