{
  "_format": "hh3-artifact-1",
  "contractName": "BondProtocol",
  "sourceName": "contracts/protocol/BondProtocol.sol",
  "abi": [
    {
      "inputs": [
        {
          "internalType": "address",
          "name": "_initialOwner",
          "type": "address"
        }
      ],
      "stateMutability": "nonpayable",
      "type": "constructor"
    },
    {
      "inputs": [],
      "name": "DuplicateSourceChain",
      "type": "error"
    },
    {
      "inputs": [],
      "name": "InsufficientAllowance",
      "type": "error"
    },
    {
      "inputs": [],
      "name": "InsufficientFunds",
      "type": "error"
    },
    {
      "inputs": [],
      "name": "IntentAlreadySubmitted",
      "type": "error"
    },
    {
      "inputs": [],
      "name": "IntentExpired",
      "type": "error"
    },
    {
      "inputs": [],
      "name": "InvalidChain",
      "type": "error"
    },
    {
      "inputs": [],
      "name": "InvalidDstChain",
      "type": "error"
    },
    {
      "inputs": [],
      "name": "InvalidExecutionChain",
      "type": "error"
    },
    {
      "inputs": [],
      "name": "InvalidInitChain",
      "type": "error"
    },
    {
      "inputs": [],
      "name": "InvalidIntent",
      "type": "error"
    },
    {
      "inputs": [],
      "name": "InvalidIntentExpiryTime",
      "type": "error"
    },
    {
      "inputs": [],
      "name": "InvalidIntentNonce",
      "type": "error"
    },
    {
      "inputs": [],
      "name": "InvalidIntentSender",
      "type": "error"
    },
    {
      "inputs": [],
      "name": "InvalidIntentSrcLength",
      "type": "error"
    },
    {
      "inputs": [],
      "name": "InvalidPoolId",
      "type": "error"
    },
    {
      "inputs": [],
      "name": "OnlyBridge",
      "type": "error"
    },
    {
      "inputs": [
        {
          "internalType": "address",
          "name": "owner",
          "type": "address"
        }
      ],
      "name": "OwnableInvalidOwner",
      "type": "error"
    },
    {
      "inputs": [
        {
          "internalType": "address",
          "name": "account",
          "type": "address"
        }
      ],
      "name": "OwnableUnauthorizedAccount",
      "type": "error"
    },
    {
      "inputs": [],
      "name": "ProtocolPaused",
      "type": "error"
    },
    {
      "inputs": [],
      "name": "ReentrancyGuardReentrantCall",
      "type": "error"
    },
    {
      "inputs": [],
      "name": "TokenTransferError",
      "type": "error"
    },
    {
      "inputs": [],
      "name": "UnsupportedSrcChain",
      "type": "error"
    },
    {
      "inputs": [],
      "name": "ZeroAddressNotAllowed",
      "type": "error"
    },
    {
      "inputs": [],
      "name": "ZeroAmountNotAllowed",
      "type": "error"
    },
    {
      "anonymous": false,
      "inputs": [
        {
          "indexed": false,
          "internalType": "bytes32",
          "name": "intentId",
          "type": "bytes32"
        },
        {
          "indexed": false,
          "internalType": "address",
          "name": "account",
          "type": "address"
        }
      ],
      "name": "IntentExecutionRequested",
      "type": "event"
    },
    {
      "anonymous": false,
      "inputs": [
        {
          "indexed": true,
          "internalType": "bytes32",
          "name": "intentId",
          "type": "bytes32"
        },
        {
          "indexed": true,
          "internalType": "address",
          "name": "sender",
          "type": "address"
        },
        {
          "indexed": false,
          "internalType": "uint256",
          "name": "timestamp",
          "type": "uint256"
        }
      ],
      "name": "IntentSubmitted",
      "type": "event"
    },
    {
      "anonymous": false,
      "inputs": [
        {
          "indexed": true,
          "internalType": "address",
          "name": "previousOwner",
          "type": "address"
        },
        {
          "indexed": true,
          "internalType": "address",
          "name": "newOwner",
          "type": "address"
        }
      ],
      "name": "OwnershipTransferred",
      "type": "event"
    },
    {
      "inputs": [
        {
          "internalType": "uint64",
          "name": "",
          "type": "uint64"
        }
      ],
      "name": "chainIdToChainSelector",
      "outputs": [
        {
          "internalType": "uint64",
          "name": "",
          "type": "uint64"
        }
      ],
      "stateMutability": "view",
      "type": "function"
    },
    {
      "inputs": [
        {
          "internalType": "uint64",
          "name": "",
          "type": "uint64"
        }
      ],
      "name": "chainSelectorToChainId",
      "outputs": [
        {
          "internalType": "uint64",
          "name": "",
          "type": "uint64"
        }
      ],
      "stateMutability": "view",
      "type": "function"
    },
    {
      "inputs": [
        {
          "internalType": "bytes",
          "name": "_data",
          "type": "bytes"
        },
        {
          "internalType": "uint64",
          "name": "srcBridgedChainSelector",
          "type": "uint64"
        }
      ],
      "name": "confirmIncomingIntent",
      "outputs": [],
      "stateMutability": "nonpayable",
      "type": "function"
    },
    {
      "inputs": [
        {
          "internalType": "uint256",
          "name": "feeInLink",
          "type": "uint256"
        },
        {
          "internalType": "int256",
          "name": "linkUsdPrice",
          "type": "int256"
        },
        {
          "internalType": "uint8",
          "name": "stableTokenDecimals",
          "type": "uint8"
        }
      ],
      "name": "convertLinkToStable",
      "outputs": [
        {
          "internalType": "uint256",
          "name": "",
          "type": "uint256"
        }
      ],
      "stateMutability": "view",
      "type": "function"
    },
    {
      "inputs": [
        {
          "internalType": "uint64",
          "name": "_poolId",
          "type": "uint64"
        },
        {
          "internalType": "address",
          "name": "_underlyingToken",
          "type": "address"
        },
        {
          "internalType": "string",
          "name": "_supplyTokenName",
          "type": "string"
        },
        {
          "internalType": "string",
          "name": "_supplyTokenSymbol",
          "type": "string"
        }
      ],
      "name": "createPool",
      "outputs": [
        {
          "components": [
            {
              "internalType": "uint64",
              "name": "poolId",
              "type": "uint64"
            },
            {
              "internalType": "address",
              "name": "underlyingToken",
              "type": "address"
            },
            {
              "internalType": "address",
              "name": "supplyToken",
              "type": "address"
            },
            {
              "internalType": "uint256",
              "name": "unclaimedProfit",
              "type": "uint256"
            },
            {
              "internalType": "uint256",
              "name": "currentIndex",
              "type": "uint256"
            }
          ],
          "internalType": "struct DataTypes.PoolData",
          "name": "",
          "type": "tuple"
        }
      ],
      "stateMutability": "nonpayable",
      "type": "function"
    },
    {
      "inputs": [
        {
          "internalType": "bool",
          "name": "_value",
          "type": "bool"
        }
      ],
      "name": "emergencyPause",
      "outputs": [],
      "stateMutability": "nonpayable",
      "type": "function"
    },
    {
      "inputs": [],
      "name": "emergencyStop",
      "outputs": [
        {
          "internalType": "bool",
          "name": "",
          "type": "bool"
        }
      ],
      "stateMutability": "view",
      "type": "function"
    },
    {
      "inputs": [
        {
          "internalType": "bytes",
          "name": "_intentData",
          "type": "bytes"
        }
      ],
      "name": "getFees",
      "outputs": [
        {
          "internalType": "uint256",
          "name": "",
          "type": "uint256"
        }
      ],
      "stateMutability": "view",
      "type": "function"
    },
    {
      "inputs": [
        {
          "internalType": "bytes32",
          "name": "_intentId",
          "type": "bytes32"
        }
      ],
      "name": "getIntent",
      "outputs": [
        {
          "components": [
            {
              "internalType": "address",
              "name": "sender",
              "type": "address"
            },
            {
              "internalType": "uint64",
              "name": "initChainSenderNonce",
              "type": "uint64"
            },
            {
              "internalType": "uint64",
              "name": "initChainId",
              "type": "uint64"
            },
            {
              "internalType": "uint64",
              "name": "poolId",
              "type": "uint64"
            },
            {
              "internalType": "uint64[]",
              "name": "srcChainIds",
              "type": "uint64[]"
            },
            {
              "internalType": "uint256[]",
              "name": "srcAmounts",
              "type": "uint256[]"
            },
            {
              "internalType": "uint64",
              "name": "dstChainId",
              "type": "uint64"
            },
            {
              "internalType": "bytes",
              "name": "dstDatas",
              "type": "bytes"
            },
            {
              "internalType": "uint256",
              "name": "expires",
              "type": "uint256"
            }
          ],
          "internalType": "struct DataTypes.IntentData",
          "name": "",
          "type": "tuple"
        }
      ],
      "stateMutability": "view",
      "type": "function"
    },
    {
      "inputs": [
        {
          "internalType": "address",
          "name": "_sender",
          "type": "address"
        }
      ],
      "name": "getNonce",
      "outputs": [
        {
          "internalType": "uint64",
          "name": "",
          "type": "uint64"
        }
      ],
      "stateMutability": "view",
      "type": "function"
    },
    {
      "inputs": [
        {
          "internalType": "uint64",
          "name": "_poolId",
          "type": "uint64"
        }
      ],
      "name": "getPool",
      "outputs": [
        {
          "components": [
            {
              "internalType": "uint64",
              "name": "poolId",
              "type": "uint64"
            },
            {
              "internalType": "address",
              "name": "underlyingToken",
              "type": "address"
            },
            {
              "internalType": "address",
              "name": "supplyToken",
              "type": "address"
            },
            {
              "internalType": "uint256",
              "name": "unclaimedProfit",
              "type": "uint256"
            },
            {
              "internalType": "uint256",
              "name": "currentIndex",
              "type": "uint256"
            }
          ],
          "internalType": "struct DataTypes.PoolData",
          "name": "",
          "type": "tuple"
        }
      ],
      "stateMutability": "view",
      "type": "function"
    },
    {
      "inputs": [
        {
          "internalType": "address",
          "name": "bridge_",
          "type": "address"
        }
      ],
      "name": "initializeBridge",
      "outputs": [],
      "stateMutability": "nonpayable",
      "type": "function"
    },
    {
      "inputs": [
        {
          "internalType": "address",
          "name": "_linkUsdAggregatorAddress",
          "type": "address"
        }
      ],
      "name": "initializeLinkUsdAggregator",
      "outputs": [],
      "stateMutability": "nonpayable",
      "type": "function"
    },
    {
      "inputs": [
        {
          "internalType": "address",
          "name": "pool_",
          "type": "address"
        }
      ],
      "name": "initializePool",
      "outputs": [],
      "stateMutability": "nonpayable",
      "type": "function"
    },
    {
      "inputs": [
        {
          "internalType": "address",
          "name": "user",
          "type": "address"
        }
      ],
      "name": "intentNonce",
      "outputs": [
        {
          "internalType": "uint64",
          "name": "",
          "type": "uint64"
        }
      ],
      "stateMutability": "view",
      "type": "function"
    },
    {
      "inputs": [
        {
          "internalType": "bytes32",
          "name": "intentId",
          "type": "bytes32"
        }
      ],
      "name": "intentSettled",
      "outputs": [
        {
          "internalType": "bool",
          "name": "",
          "type": "bool"
        }
      ],
      "stateMutability": "view",
      "type": "function"
    },
    {
      "inputs": [
        {
          "internalType": "bytes32",
          "name": "_intentId",
          "type": "bytes32"
        }
      ],
      "name": "isIntentDstChainFullySettled",
      "outputs": [
        {
          "internalType": "bool",
          "name": "",
          "type": "bool"
        }
      ],
      "stateMutability": "view",
      "type": "function"
    },
    {
      "inputs": [
        {
          "internalType": "bytes32",
          "name": "_intentId",
          "type": "bytes32"
        }
      ],
      "name": "isIntentExecuted",
      "outputs": [
        {
          "internalType": "bool",
          "name": "",
          "type": "bool"
        }
      ],
      "stateMutability": "view",
      "type": "function"
    },
    {
      "inputs": [
        {
          "internalType": "bytes32",
          "name": "_intentId",
          "type": "bytes32"
        },
        {
          "internalType": "address",
          "name": "sender_",
          "type": "address"
        }
      ],
      "name": "isIntentValid",
      "outputs": [
        {
          "internalType": "bool",
          "name": "",
          "type": "bool"
        }
      ],
      "stateMutability": "view",
      "type": "function"
    },
    {
      "inputs": [],
      "name": "owner",
      "outputs": [
        {
          "internalType": "address",
          "name": "",
          "type": "address"
        }
      ],
      "stateMutability": "view",
      "type": "function"
    },
    {
      "inputs": [
        {
          "internalType": "uint64",
          "name": "_chainId",
          "type": "uint64"
        },
        {
          "internalType": "uint64",
          "name": "_chainSelector",
          "type": "uint64"
        }
      ],
      "name": "peerChainIdandChainSelector",
      "outputs": [],
      "stateMutability": "nonpayable",
      "type": "function"
    },
    {
      "inputs": [],
      "name": "renounceOwnership",
      "outputs": [],
      "stateMutability": "nonpayable",
      "type": "function"
    },
    {
      "inputs": [
        {
          "internalType": "bytes32",
          "name": "_intentId",
          "type": "bytes32"
        },
        {
          "internalType": "address",
          "name": "_executor",
          "type": "address"
        }
      ],
      "name": "settleIntentDestChain",
      "outputs": [],
      "stateMutability": "nonpayable",
      "type": "function"
    },
    {
      "inputs": [
        {
          "internalType": "bytes32",
          "name": "_intentId",
          "type": "bytes32"
        },
        {
          "internalType": "address",
          "name": "_executor",
          "type": "address"
        }
      ],
      "name": "settleIntentDestExecutor",
      "outputs": [],
      "stateMutability": "nonpayable",
      "type": "function"
    },
    {
      "inputs": [
        {
          "internalType": "bytes",
          "name": "_intentData",
          "type": "bytes"
        }
      ],
      "name": "submitIntent",
      "outputs": [],
      "stateMutability": "nonpayable",
      "type": "function"
    },
    {
      "inputs": [
        {
          "internalType": "uint64",
          "name": "_poolId",
          "type": "uint64"
        },
        {
          "internalType": "uint256",
          "name": "_amount",
          "type": "uint256"
        }
      ],
      "name": "supply",
      "outputs": [],
      "stateMutability": "nonpayable",
      "type": "function"
    },
    {
      "inputs": [
        {
          "internalType": "address",
          "name": "newOwner",
          "type": "address"
        }
      ],
      "name": "transferOwnership",
      "outputs": [],
      "stateMutability": "nonpayable",
      "type": "function"
    },
    {
      "inputs": [
        {
          "internalType": "uint64",
          "name": "_poolId",
          "type": "uint64"
        },
        {
          "internalType": "uint256",
          "name": "_amount",
          "type": "uint256"
        }
      ],
      "name": "withdraw",
      "outputs": [],
      "stateMutability": "nonpayable",
      "type": "function"
    }
  ],
  "bytecode": "0x60803460d157601f613e0038819003918201601f19168301916001600160401b0383118484101760d55780849260209460405283398101031260d157516001600160a01b0381169081900360d157801560be575f80546001600160a01b031981168317825560405192916001600160a01b03909116907f8be0079c531659141344cd1fd0a4f28419497f9722a3daafe3b4186f6b6457e09080a36001805566470de4df820000600c5560ff19600d5416600d55613d1690816100ea8239f35b631e4fbdf760e01b5f525f60045260245ffd5b5f80fd5b634e487b7160e01b5f52604160045260245ffdfe6080806040526004361015610012575f80fd5b5f905f3560e01c908163030b2cc914613014575080631681f46514612a485780632065f2c0146129f95780632ba88be91461247b5780632d0335ab1461243a578063407431f7146123eb578063433879831461226c5780635008dd8d1461223b578063634a2320146121f857806363a599a4146121d55780636eeee43f146121a6578063715018a61461214c5780637796a566146121125780637f54fb4b1461209f5780637fed1b6d14611fd05780638355ac9214611f975780638da5cb5b14611f705780638e4960ff146117c5578063919adab81461179457806398953f3f146117655780639e5b03661461172b578063cb0dada5146116d5578063d6db5b64146115a7578063e8f6940e1461156f578063f13c46aa1461128c578063f2fde38b14611206578063f5d0bf8714610f8a5763fd14555614610152575f80fd5b34610f87576020366003190112610f87576004356001600160401b038111610f8557610182903690600401613424565b9061018b613be6565b60ff600d5416610f76578151916101aa60208083019483010184613718565b60208101936001600160401b0385511633855260046020526001600160401b0360408620541603610f67578151336001600160a01b0390911603610f58576080820192600384515111610f49576101008301958651610708420190814211610f3557108015610f1f575b610f105760018060a01b036003541696606085019760a06001600160401b038a51166024604051809481936312335b5760e31b835260048301525afa908115610f0557906020918991610ed6575b500180519094906001600160a01b031615610ec757835190209384885260076020526001600160401b03600160408a20015416610eb8576001600160401b034616926040870196846001600160401b0389511603610ea9578851519360a082019485515103610e9a5760c08201986001600160401b038a51168c5260056020526001600160401b0360408d2054169c8d1580610e86575b610e7757898d5260076020526040808e208551815497516001600160e01b03199098166001600160a01b03919091161760a09790971b67ffffffffffffffff60a01b16969096178655915160018601805492516001600160801b03199093166001600160401b03928316179290931b67ffffffffffffffff60401b16919091179091558a51805160028601929091908211610d7157600160401b8211610d715790602083928f9454838555808410610e2b575b500191835260208320908060021c92845b848110610ddc575060031982169091039081610d85575b5050505050600383018551908151916001600160401b038311610d7157600160401b8311610d71576020908e835485855585818110610d56575b50505001908d5260208d208d5b838110610d4257505050506001600160401b038951166001600160401b036004850191166001600160401b031982541617905560e0600584019201519182516001600160401b038111610d2e578c610473835461361a565b601f8111610cf3575b505060208d601f8311600114610c8b579060069583610c80575b50508160011b915f199060031b1c19161790555b519101558651519861052c6104c18b600c54613954565b9361053a6104fa61050860018060a01b0387511699604051906104e3826133b2565b8c8252602082015260405192839160208301613692565b03601f1981018352826133e8565b60405190610515826133b2565b8d82526020820152604051938491602083016136b6565b03601f1981018452836133e8565b8a955b60ff8716988d8a10156109ae576001600160401b0360408e828f8e6105629151613652565b5116815260056020522054161561099f5761057e8a8451613652565b51156109905760018a019d60ff8f1161097c5760ff8f5b16818110156105e9576001600160401b036105c18f92828f6105b8908651613652565b51169351613652565b5116146105da576105d360ff9f613b42565b9e8f610595565b633857f84d60e01b8e5260048efd5b509d50986001600160401b03610604828e9a99949a51613652565b51168803610880578a516001600160401b0316881461081457610628908351613652565b516040516370a0823160e01b81523360048201526020816024818d5afa90811561077d579082918f916107e0575b50106107d157604051636eb1769f60e11b81523360048201523060248201526020816044818d5afa90811561077d579082918f91610799575b501061078a576106e86020828f8c9060018060a01b0360025416906040518096819582946323b872dd60e01b84523360048501604091949392606082019560018060a01b0316825260018060a01b031660208201520152565b03925af1801561077d57906107109291610751575b5086516001600160a01b03168587613c06565b50908160011b918083046002149015171561073d5761073360ff92600192613967565b965b01169561053d565b634e487b7160e01b8d52601160045260248dfd5b6107719060203d8111610776575b61076981836133e8565b81019061367a565b6106fd565b503d61075f565b8e604051903d90823e3d90fd5b6313be252b60e01b8d5260048dfd5b9150506020813d82116107c9575b816107b4602093836133e8565b810103126107c5578190515f61068f565b5f80fd5b3d91506107a7565b63356680b760e01b8d5260048dfd5b9150506020813d821161080c575b816107fb602093836133e8565b810103126107c5578190515f610656565b3d91506107ee565b509460018d1461087157600160ff9160408e8c8152600b6020528181208561083e81835416613b42565b1686198254161790558c81526009602052206001600160401b038a165f5260205260405f20828419825416179055610735565b6302e4dc0b60e01b8c5260048cfd5b6108936001600160401b03918d51613652565b51168c5260056020528b60406001600160401b03818320541660018060a01b036002541682518094819363b165c04f60e01b8352600483015260a06024830152816108e160a482018b6134e1565b82604483015282606483015262061a80608483015203925af190811561097157908d92918391610935575b50508160011b918083046002149015171561073d5761092f60ff92600192613967565b96610735565b9250506040823d8211610969575b81610950604093836133e8565b8101031261096557602082519201515f61090c565b8c80fd5b3d9150610943565b6040513d8f823e3d90fd5b634e487b7160e01b8e52601160045260248efd5b6307a1cab560e11b8d5260048dfd5b6325f5c80560e21b8d5260048dfd5b8c90896004898960a0600180821b03600d5460081c1660405194858092633fabe5a360e21b82525afa908115610c3c576004938792610c47575b505160405163313ce56760e01b81529360209185919082906001600160a01b03165afa918215610c3c57610a23938793610c0b575b50613a45565b6040516370a0823160e01b8152336004820152602081602481865afa8015610bbc5782918691610bd6575b5010610bc757604051636eb1769f60e11b8152336004820152306024820152602081604481865afa8015610bbc5782918691610b87575b5010610b78576040516323b872dd60e01b81523360048201523060248201526044810191909152906020908290606490829087905af18015610b6d57610b50575b503382526004602052604082206001600160401b038154166001600160401b038114610b3c5760016001600160401b039101166001600160401b0319825416179055604051904282527f7f7b7ad79ce4ccd6fc2142c08993ef13a9d432e4cc1770c29bee7a7627b8432060203393a36001805580f35b634e487b7160e01b84526011600452602484fd5b610b689060203d6020116107765761076981836133e8565b610ac6565b6040513d85823e3d90fd5b6313be252b60e01b8452600484fd5b9150506020813d602011610bb4575b81610ba3602093836133e8565b810103126107c55781905186610a85565b3d9150610b96565b6040513d87823e3d90fd5b63356680b760e01b8452600484fd5b9150506020813d602011610c03575b81610bf2602093836133e8565b810103126107c55781905186610a4e565b3d9150610be5565b610c2e91935060203d602011610c35575b610c2681836133e8565b8101906139bd565b9187610a1d565b503d610c1c565b6040513d88823e3d90fd5b6020919250610c6d9060a03d60a011610c79575b610c6581836133e8565b81019061398b565b505050905091906109e8565b503d610c5b565b015190505f80610496565b91929394601f198416858452828420935b818110610cdb575091600193918560069897969410610cc3575b505050811b0190556104aa565b01515f1960f88460031b161c191690555f8080610cb6565b92936020600181928786015181550195019301610c9c565b60208285610d1d945220601f840160051c81019160208510610d24575b601f0160051c0190613b2c565b8c5f61047c565b9091508190610d10565b634e487b7160e01b8d52604160045260248dfd5b60019060208451940193818401550161041b565b848387610d699552209182019101613b2c565b8e5f8561040e565b634e487b7160e01b8e52604160045260248efd5b90845b818110610d9e5750505001558a5f8080806103d4565b9091946020610dd26001926001600160401b03895116908560031b6001600160401b03809160031b9316831b921b19161790565b9601929101610d88565b9091929394805b60048110610dfe5750848201558f94939291906001016103bd565b83519093916001916020916001600160401b03600688901b81811b199092169216901b1792019301610de3565b610e5890858752838720600380870160021c820192601888831b1680610e5e575b500160021c0190613b2c565b5f6103ac565b5f198501908154905f19908a03851b1c1690555f610e4c565b6338a8d85360e21b8d5260048dfd5b50876001600160401b038c511614156102f9565b6302e4dc0b60e01b8b5260048bfd5b63562f655560e01b8a5260048afd5b63a442ddf960e01b8852600488fd5b63015f4fdd60e31b8852600488fd5b610ef8915060a03d60a011610efe575b610ef081836133e8565b8101906138f9565b5f610262565b503d610ee6565b6040513d8a823e3d90fd5b630542fbd360e01b8652600486fd5b508651611c20420190814211610f355711610214565b634e487b7160e01b88526011600452602488fd5b6302e4dc0b60e01b8552600485fd5b6322e53e9b60e11b8452600484fd5b6355d7583160e01b8452600484fd5b634427925560e01b8152600490fd5b505b80fd5b5034610f87576040366003190112610f8757610fa4613468565b9060243591610fb1613be6565b6003546040516312335b5760e31b81526001600160401b03831660048201526001600160a01b03909116939060a081602481885afa908115611172579060209185916111e7575b500180516040516370a0823160e01b815233600482015290602090829060249082906001600160a01b03165afa908115610bbc5790839186916111b2575b5010610bc7578051604051636eb1769f60e11b815233600482015230602482015290602090829060449082906001600160a01b03165afa908115610bbc57908391869161117d575b5010610b7857516040516323b872dd60e01b81523360048201526001600160a01b039586166024820152604481018390529394859491602091839160649183918991165af1801561117257611155575b506003546001600160a01b031691823b1561115057604051633b8bfde360e11b81526001600160401b0391909116600482015260248101919091523360448201529082908290606490829084905af1801561114557611130575b506001805580f35b8161113a916133e8565b610f8757805f611128565b6040513d84823e3d90fd5b505050fd5b61116d9060203d6020116107765761076981836133e8565b6110ce565b6040513d86823e3d90fd5b9150506020813d6020116111aa575b81611199602093836133e8565b810103126107c5578290515f61107e565b3d915061118c565b9150506020813d6020116111df575b816111ce602093836133e8565b810103126107c5578290515f611036565b3d91506111c1565b611200915060a03d60a011610efe57610ef081836133e8565b5f610ff8565b5034610f87576020366003190112610f875761122061336c565b611228613cba565b6001600160a01b031680156112785781546001600160a01b03198116821783556001600160a01b03167f8be0079c531659141344cd1fd0a4f28419497f9722a3daafe3b4186f6b6457e08380a380f35b631e4fbdf760e01b82526004829052602482fd5b5034610f87576020366003190112610f8757806101006040516112ae81613382565b82815282602082015282604082015282606082015260606080820152606060a08201528260c0820152606060e08201520152600435815260076020526040812090604051906112fc82613382565b6001600160401b03835460018060a01b038116845260a01c1660208301526001600160401b036001840154818116604085015260401c16606083015260028301604051808260208294549384815201908552602085209285905b80600383011061151d5761138c945491818110611503575b8181106114e6575b8181106114c9575b106114bb575b5003826133e8565b6080830152600383016040518082602082945493848152019085526020852092855b8181106114a25750506113c3925003826133e8565b60a08301526001600160401b0360048401541660c0830152600583019060405191818154916113f18361361a565b8086529260018116908115611477575060011461143a575b611436866006898861141d818a03826133e8565b60e0840152015461010082015260405191829182613505565b0390f35b9080935052602082205b81831061145d57505081016020018161141d6006611409565b600181602092949394548385880101520191019190611444565b60ff191660208088019190915293151560051b8601909301935084925061141d915060069050611409565b84548352600194850194869450602090930192016113ae565b60c01c81526020015f611384565b9260206001916001600160401b038560801c16815201930161137e565b9260206001916001600160401b038560401c168152019301611376565b9260206001916001600160401b038516815201930161136e565b916004919350608060019186546001600160401b03811682526001600160401b038160401c1660208301526001600160401b0381841c16604083015260c01c6060820152019401920184929391611356565b5034610f87576020366003190112610f8757600435801515809103610f8557611596613cba565b60ff8019600d5416911617600d5580f35b5034610f87576080366003190112610f87576115c1613468565b816115ca613356565b6044356001600160401b0381116116d1576115e9903690600401613424565b926064356001600160401b0381116116cd5760a0936116146001600160401b03923690600401613424565b9261161d613b53565b50611626613cba565b61162e613be6565b611688600180881b036003541694611676604051998a98899788966335b6d6d960e21b88521660048701526001808c1b031660248601526080604486015260848501906134e1565b838103600319016064850152906134e1565b03925af19081156111455761143692916116ae575b506001805560405191829182613494565b6116c7915060a03d60a011610efe57610ef081836133e8565b5f61169d565b8380fd5b8280fd5b5034610f87576020366003190112610f87576116ef61336c565b6116f7613be6565b6116ff613cba565b600d8054610100600160a81b03191660089290921b610100600160a81b03169190911790556001805580f35b5034610f87576020366003190112610f87576001600160401b03604060209282611753613468565b16815260058452205416604051908152f35b5034610f87576020366003190112610f875760ff60406020926004358152600884522054166040519015158152f35b5034610f87576020366003190112610f87576114366117b96117b4613468565b613b7d565b60405191829182613494565b5034610f87576040366003190112610f87576004356001600160401b038111610f85576117f6903690600401613424565b906117ff61347e565b6002549091906001600160a01b03163303611f615760ff600d5416610f7657611826613be6565b6001600160401b03461691835161184560208087019287010182613718565b94519020808352600760205260408320549091906001600160a01b0316611f235781835260076020908152604080852087518154938901516001600160e01b03199094166001600160a01b03919091161760a09390931b67ffffffffffffffff60a01b169290921782558681015160018301805460608a01516001600160801b03199091166001600160401b0393841617931b67ffffffffffffffff60401b16929092179091556080870151805160028401929091908211611e1257600160401b8211611e12576020908354838555808410611ef1575b5001918652602086208160021c91875b838110611eac57506003198116900380611e54575b505050506003810160a0870151908151916001600160401b038311611e1257600160401b8311611e12576020908254848455808510611e3a575b500190865260208620865b838110611e2657505050506001600160401b0360c0870151166001600160401b036004830191166001600160401b03198254161790556005810160e08701518051906001600160401b038211611e12576119e0835461361a565b601f8111611de2575b50602090601f8311600114611d75576001600160401b039594939291889183611d6a575b50508160011b915f199060031b1c19161790555b60066101008801519101555b16825260066020526001600160401b0360408320541693611a5a6001600160401b03606083015116613b7d565b92846001600160401b0360c084015116145f14611d235794859360808301938592835b865180519060ff831691821015611bd05790836001600160401b03611aa3838e95613652565b511614611ada575b611abe6001600160401b03918a51613652565b511614611ad1575b60010160ff16611a7d565b60019950611ac6565b985050600197838652600b6020526040862060ff611afa81835416613b42565b1660ff198254161790558386526009602052604086206001600160401b0380611b24848c51613652565b5116165f5260205260405f208960ff1982541617905560018060a01b03602086015116602060018060a01b038951166044611b638560a08d0151613652565b51918a604051958694859363a9059cbb60e01b8552600485015260248401525af18015611bc5578b926001600160401b0392611abe92611ba7575b50915050611aab565b611bbe9060203d81116107765761076981836133e8565b505f611b9e565b6040513d89823e3d90fd5b505050509394905095909594919415611cba575b5050808452600b60205260ff6040852054168251511115611c0b575b5050505b6001805580f35b600190845b83515160ff821690811015611c685782875260096020526001600160401b0380611c3f60408a20938851613652565b5116165f5260205260ff60405f20541615611c60575b60010160ff16611c10565b859250611c55565b50509150611c77575b80611c00565b9051604080519283526001600160a01b0390911660208301527f079beaf390d2fb84d365cedc2622d3af24bb5abfa22946664d8904af24fc332591a15f80611c71565b15611d1457818552600b6020526040852060ff611cd981835416613b42565b1660ff1982541617905581855260096020526001600160401b036040862091165f5260205260405f20600160ff198254161790555f80611be4565b63057f3fa760e51b8552600485fd5b9051604080519384526001600160a01b0390911660208401529094507f079beaf390d2fb84d365cedc2622d3af24bb5abfa22946664d8904af24fc332593509150a1611c04565b015190505f80611a0d565b8388528188209190601f198416895b818110611dca57509160019391856001600160401b03999897969410611db2575b505050811b019055611a21565b01515f1960f88460031b161c191690555f8080611da5565b92936020600181928786015181550195019301611d84565b611e0c9084895260208920601f850160051c81019160208610610d2457601f0160051c0190613b2c565b5f6119e9565b634e487b7160e01b87526041600452602487fd5b600190602084519401938184015501611986565b838952828920611e4e918101908601613b2c565b5f61197b565b928793885b818110611e6e5750505001555f808080611941565b9091946020611ea26001926001600160401b03895116908560031b6001600160401b03809160031b9316831b921b19161790565b9601929101611e59565b88895b60048110611ec457508382015560010161192c565b86519096916001916020916001600160401b0360068b901b81811b199092169216901b1792019601611eaf565b611f1d90858a52838a20600380870160021c820192601888831b1680610e5e57500160021c0190613b2c565b5f61191c565b8451828452600760205260408420546001600160a01b03918216911603611f52576001600160401b0390611a2d565b633edae5df60e11b8352600483fd5b6338da3b1560e01b8152600490fd5b5034610f875780600319360112610f8757546040516001600160a01b039091168152602090f35b5034610f87576060366003190112610f87576044359060ff82168203610f87576020611fc883602435600435613a45565b604051908152f35b5034610f87576040366003190112610f8757600435611fed613356565b5060ff600d541661209057612000613be6565b808252600760205260408220546001600160a01b0316330361208157808252600a60205260ff60408320541661207257808252600760205260066040832001544211612063578152600a60205260408120600160ff198254161790556001805580f35b631022c88d60e21b8252600482fd5b63a442ddf960e01b8252600482fd5b6322e53e9b60e11b8252600482fd5b634427925560e01b8252600482fd5b5034610f87576040366003190112610f87576120b9613468565b6001600160401b036120c961347e565b6120d1613cba565b8183168452600560205260408420828216831982541617905516825260066020526001600160401b036040832091166001600160401b031982541617905580f35b5034610f87576020366003190112610f87576001600160401b0360406020928261213a613468565b16815260068452205416604051908152f35b5034610f875780600319360112610f8757612165613cba565b80546001600160a01b03198116825581906001600160a01b03167f8be0079c531659141344cd1fd0a4f28419497f9722a3daafe3b4186f6b6457e08280a380f35b5034610f87576020366003190112610f875760ff60406020926004358152600a84522054166040519015158152f35b5034610f875780600319360112610f8757602060ff600d54166040519015158152f35b5034610f87576020366003190112610f87576020906001600160401b03906040906001600160a01b0361222961336c565b16815260048452205416604051908152f35b5034610f87576040366003190112610f8757602061226261225a613356565b6004356139d6565b6040519015158152f35b50346107c55760403660031901126107c557612286613468565b602435612291613be6565b6003546040516312335b5760e31b81526001600160401b03841660048201526001600160a01b03909116929060a081602481875afa90811561237d576024916020915f916123cc575b5060409081015190516370a0823160e01b815233600482015292839182906001600160a01b03165afa801561237d5783915f91612397575b501061238857823b156107c5576040516250549960e01b81526001600160401b039190911660048201526024810191909152336044820152905f908290606490829084905af1801561237d5761236a57506001805580f35b61237691505f906133e8565b5f5f611128565b6040513d5f823e3d90fd5b63356680b760e01b5f5260045ffd5b9150506020813d6020116123c4575b816123b3602093836133e8565b810103126107c5578290515f612312565b3d91506123a6565b6123e5915060a03d60a011610efe57610ef081836133e8565b5f6122da565b346107c55760203660031901126107c55761240461336c565b61240c613be6565b612414613cba565b600380546001600160a01b0319166001600160a01b039290921691909117905560018055005b346107c55760203660031901126107c5576001600160a01b0361245b61336c565b165f52600460205260206001600160401b0360405f205416604051908152f35b346107c55760203660031901126107c5576004356001600160401b0381116107c5576124ab903690600401613424565b8051906124c060208083019383010183613718565b916001600160401b03602084015116335f5260046020526001600160401b0360405f205416036129ea578251336001600160a01b03909116036129db5760018060a01b036003541660a06001600160401b036060860151166024604051809481936312335b5760e31b835260048301525afa801561237d576020915f916129bc575b500180519091906001600160a01b0316156129ad578251902092835f5260076020526001600160401b03600160405f2001541661299e576001600160401b034616806001600160401b036040840151160361298f5760808201948551519260a0810193845151036129805760c001926001600160401b038451165f5260056020526001600160401b0360405f205416158061296c575b61295d5761261792612625885151936125f385600c54613954565b9860405191612601836133b2565b8252602082015260405195869160208301613692565b03601f1981018652856133e8565b5f5b60ff81168481101561289b576001600160401b03612646828c51613652565b51165f5260056020526001600160401b0360405f2054161561288c576001600160401b03612675828c51613652565b511683036127a7576001600160401b03875116830361269d575b50600160ff915b0116612627565b6126ab908499929951613652565b51602060018060a01b0360025416916001600160401b038951165f52600582526001600160401b0360405f2054169260018060a01b038b511693604051809581948293637719bb6d60e01b8452600484015260a060248401526127128d60a48501906134e1565b916044840152606483015262061a80608483015203915afa90811561237d575f91612776575b508060011b90808204600214901517156127625761275a60019160ff93613967565b98915061268f565b634e487b7160e01b5f52601160045260245ffd5b90506020813d821161279f575b81612790602093836133e8565b810103126107c557518a612738565b3d9150612783565b6001600160401b036127c860018060a09c959c1b0360025416928c51613652565b51165f52600560205260206001600160401b0360405f205416604051928391637719bb6d60e01b8352600483015260a06024830152818061280c60a482018c6134e1565b5f60448301525f606483015262061a80608483015203915afa90811561237d575f9161285b575b508060011b90808204600214901517156127625761285560019160ff93613967565b98612696565b90506020813d8211612884575b81612875602093836133e8565b810103126107c557518a612833565b3d9150612868565b6325f5c80560e21b5f5260045ffd5b600d54604051633fabe5a360e21b81528a918a9060a0908390600490829060081c6001600160a01b03165afa90811561237d576004925f92612934575b505160405163313ce56760e01b81529260209184919082906001600160a01b03165afa90811561237d57602093611fc8935f936129155750613a45565b61292d919350853d8711610c3557610c2681836133e8565b9185610a1d565b60209192506129519060a03d60a011610c7957610c6581836133e8565b505050905091906128d8565b6338a8d85360e21b5f5260045ffd5b50826001600160401b0385511614156125d8565b6302e4dc0b60e01b5f5260045ffd5b63562f655560e01b5f5260045ffd5b63a442ddf960e01b5f5260045ffd5b63015f4fdd60e31b5f5260045ffd5b6129d5915060a03d60a011610efe57610ef081836133e8565b85612542565b6322e53e9b60e11b5f5260045ffd5b6355d7583160e01b5f5260045ffd5b346107c55760203660031901126107c557612a1261336c565b612a1a613be6565b612a22613cba565b600280546001600160a01b0319166001600160a01b039290921691909117905560018055005b346107c55760403660031901126107c557600435612a64613356565b5060ff600d541661300557612a77613be6565b805f52600760205260405f2060405190612a9082613382565b6001600160401b03815460018060a01b038116845260a01c1660208301526001810154906001600160401b03821660408401526001600160401b03606084019260401c1682526002810193604051808660208298549384815201905f5260205f20925f905b806003830110612fb357612b2b945491818110612f99575b818110612f7c575b818110612f5f575b10612f51575b5003866133e8565b608084019485526003820193604051808660208298549384815201905f5260205f20925f5b818110612f38575050612b65925003866133e8565b60a081019485526001600160401b036004840154169260c0820193845260058101604051905f90805490612b988261361a565b8085529160018116908115612f115750600114612ecd575b505090612bc2816006949303826133e8565b60e08401520154610100820190815281516001600160a01b031633036129db57825f52600a60205260ff60405f20541661299e57514211612ebe575f5f5b875180519060ff831691821015612c53576001600160401b03612c24834693613652565b511614612c38575b5060010160ff16612c00565b60ff919250612c4a6001918951613652565b51929150612c2c565b50505083858215612eaf57612c736001600160401b036020925116613b7d565b018051604051636eb1769f60e11b815233600482015230602482015291929190602090829060449082906001600160a01b03165afa801561237d5784915f91612e7a575b5010612e6b5781516040516370a0823160e01b815233600482015290602090829060249082906001600160a01b03165afa801561237d5784915f91612e36575b50106123885781516002546040516323b872dd60e01b81523360048201526001600160a01b039182166024820152604481018690529591602091879160649183915f91165af191821561237d57612dcf6104fa612d9d6104fa612d796001600160401b0396612df99b612dc199612e19575b5060405192839160208301613505565b60405190612d86826133b2565b8b8252602082015260405192839160208301613692565b60405190612daa826133b2565b5f82526020820152604051948591602083016136b6565b03601f1981018552846133e8565b51165f9081526005602052604090205491516001600160a01b0316916001600160401b0316613c06565b50505f52600a60205260405f20600160ff19825416179055600180555f80f35b612e319060203d6020116107765761076981836133e8565b612d69565b9150506020813d602011612e63575b81612e52602093836133e8565b810103126107c55783905187612cf7565b3d9150612e45565b6313be252b60e01b5f5260045ffd5b9150506020813d602011612ea7575b81612e96602093836133e8565b810103126107c55783905187612cb7565b3d9150612e89565b63057f3fa760e51b5f5260045ffd5b631022c88d60e21b5f5260045ffd5b5f9081526020812094939250905b808210612ef55750919250908101602001612bc282612bb0565b9192936001816020925483858801015201910190939291612edb565b60ff191660208087019190915292151560051b85019092019250612bc29150839050612bb0565b845483526001948501948a945060209093019201612b50565b60c01c815260200188612b23565b9260206001916001600160401b038560801c168152019301612b1d565b9260206001916001600160401b038560401c168152019301612b15565b9260206001916001600160401b0385168152019301612b0d565b916004919350608060019186546001600160401b03811682526001600160401b038160401c1660208301526001600160401b0381841c16604083015260c01c6060820152019401920188929391612af5565b634427925560e01b5f5260045ffd5b346107c55760203660031901126107c55760043590815f52600760205260405f209061303f81613382565b6001600160401b03825460018060a01b038116835260a01c1660208201526001600160401b036001830154818116604084015260401c1660608201526002820191604051808460208296549384815201905f5260205f20925f905b806003830110613304576130d09454918181106132ea575b8181106132cd575b8181106132b0575b106132a2575b5003846133e8565b6080820192835260038101604051808260208294549384815201905f5260205f20925f5b818110613289575050613109925003826133e8565b60a083015260048101546001600160401b031660c08301526040516005820180545f916131358261361a565b8085529160018116908115613262575060011461321e575b50509061315f816006949303826133e8565b60e08401520154610100820152516001600160a01b03161561320f576001825f52600b60205260ff60405f20541682515111155f14613204575f5b82515160ff8216908110156131f257845f5260096020526001600160401b03806131c960405f20938751613652565b5116165f5260205260ff60405f205416156131ea575b60010160ff1661319a565b5f91506131df565b50509050602091506040519015158152f35b50505060205f612262565b633edae5df60e11b5f5260045ffd5b5f9081526020812094939250905b808210613246575091925090810160200161315f8261314d565b919293600181602092548385880101520191019093929161322c565b60ff191660208087019190915292151560051b8501909201925061315f915083905061314d565b84548352600194850194869450602090930192016130f4565b60c01c8152602001876130c8565b9260206001916001600160401b038560801c1681520193016130c2565b9260206001916001600160401b038560401c1681520193016130ba565b9260206001916001600160401b03851681520193016130b2565b916004919350608060019186546001600160401b03811682526001600160401b038160401c1660208301526001600160401b0381841c16604083015260c01c606082015201940192018692939161309a565b602435906001600160a01b03821682036107c557565b600435906001600160a01b03821682036107c557565b61012081019081106001600160401b0382111761339e57604052565b634e487b7160e01b5f52604160045260245ffd5b604081019081106001600160401b0382111761339e57604052565b60a081019081106001600160401b0382111761339e57604052565b90601f801991011681019081106001600160401b0382111761339e57604052565b6001600160401b03811161339e57601f01601f191660200190565b81601f820112156107c55760208135910161343e82613409565b9261344c60405194856133e8565b828452828201116107c557815f92602092838601378301015290565b600435906001600160401b03821682036107c557565b602435906001600160401b03821682036107c557565b91909160808060a08301946001600160401b03815116845260018060a01b03602082015116602085015260018060a01b036040820151166040850152606081015160608501520151910152565b805180835260209291819084018484015e5f828201840152601f01601f1916010190565b60208152610140810160018060a01b0383511660208301526001600160401b0360208401511660408301526001600160401b0360408401511660608301526001600160401b03606084015116608083015260808301519061012060a08401528151809152602061016084019201905f5b8181106135fb5750505060a083015190601f198382030160c0840152602080835192838152019201905f5b8181106135e5575050506101006135dc610120926001600160401b0360c08701511660e086015260e0860151601f1986830301848701526134e1565b93015191015290565b82518452602093840193909201916001016135a0565b82516001600160401b0316845260209384019390920191600101613575565b90600182811c92168015613648575b602083101461363457565b634e487b7160e01b5f52602260045260245ffd5b91607f1691613629565b80518210156136665760209160051b010190565b634e487b7160e01b5f52603260045260245ffd5b908160209103126107c5575180151581036107c55790565b606060206136b39381845280518285015201519160408082015201906134e1565b90565b606060206136b393818452805115158285015201519160408082015201906134e1565b51906001600160a01b03821682036107c557565b51906001600160401b03821682036107c557565b6001600160401b03811161339e5760051b60200190565b6020818303126107c5578051906001600160401b0382116107c5570190610120828203126107c5576040519161374d83613382565b613756816136d9565b8352613764602082016136ed565b6020840152613775604082016136ed565b6040840152613786606082016136ed565b606084015260808101516001600160401b0381116107c557810182601f820112156107c5578051906137b782613701565b916137c560405193846133e8565b80835260208084019160051b830101918583116107c557602001905b8282106138e157505050608084015260a08101516001600160401b0381116107c557810182601f820112156107c55780519061381c82613701565b9161382a60405193846133e8565b80835260208084019160051b830101918583116107c557602001905b8282106138d15750505060a084015261386160c082016136ed565b60c084015260e08101516001600160401b0381116107c55781019180601f840112156107c557825161389281613409565b916138a060405193846133e8565b818352602082860101116107c5576020815f928261010097018386015e8301015260e0840152015161010082015290565b8151815260209182019101613846565b602080916138ee846136ed565b8152019101906137e1565b908160a09103126107c557608060405191613913836133cd565b61391c816136ed565b835261392a602082016136d9565b602084015261393b604082016136d9565b6040840152606081015160608401520151608082015290565b8181029291811591840414171561276257565b9190820180921161276257565b519069ffffffffffffffffffff821682036107c557565b908160a09103126107c55761399f81613974565b916020820151916040810151916136b3608060608401519301613974565b908160209103126107c5575160ff811681036107c55790565b90815f52600a60205260ff60405f205416159182613a2b575b82613a04575b50506139ff575f90565b600190565b5f908152600760205260408120546001600160a01b039283169216919091149150806139f5565b8092505f526007602052600660405f2001544210916139ef565b905f811315613af757600d5460405163313ce56760e01b8152906020908290600490829060081c6001600160a01b03165afa801561237d5760ff915f91613ad8575b501660120160ff81116127625760ff8091169316830392831161276257613aad91613954565b90604d811161276257600a0a908115613ac4570490565b634e487b7160e01b5f52601260045260245ffd5b613af1915060203d602011610c3557610c2681836133e8565b5f613a87565b60405162461bcd60e51b815260206004820152600d60248201526c496e76616c696420707269636560981b6044820152606490fd5b818110613b37575050565b5f8155600101613b2c565b60ff1660ff81146127625760010190565b60405190613b60826133cd565b5f6080838281528260208201528260408201528260608201520152565b613b85613b53565b506003546040516312335b5760e31b81526001600160401b0392909216600483015260a090829060249082906001600160a01b03165afa90811561237d575f91613bcd575090565b6136b3915060a03d60a011610efe57610ef081836133e8565b600260015414613bf7576002600155565b633ee5aeb560e01b5f5260045ffd5b926001600160401b035f613c4e969560409560018060a01b0360025416948751998a978896879563b165c04f60e01b875216600486015260a0602486015260a48501906134e1565b6001600160a01b039092166044840152606483015262061a80608483015203925af191821561237d575f905f93613c8457509190565b9250506040823d604011613cb2575b81613ca0604093836133e8565b810103126107c5576020825192015190565b3d9150613c93565b5f546001600160a01b03163303613ccd57565b63118cdaa760e01b5f523360045260245ffdfea2646970667358221220610403c701a56647b34d3017cbf11c0ca808789fa69d745cc1fdbf012bc9c14764736f6c634300081c0033",
  "linkReferences": {},
  "deployedLinkReferences": {},
  "immutableReferences": {},
  "inputSourceName": "contracts/protocol/BondProtocol.sol",
  "buildInfoId": "877fcc1bd445ea5b999a3ed0683fa00ce2e22962"
}