{
  "_format": "hh3-artifact-1",
  "contractName": "BondBridge",
  "sourceName": "contracts/protocol/BondBridge.sol",
  "abi": [
    {
      "inputs": [
        {
          "internalType": "address",
          "name": "_router",
          "type": "address"
        },
        {
          "internalType": "address",
          "name": "_link",
          "type": "address"
        },
        {
          "internalType": "address",
          "name": "_protocol",
          "type": "address"
        },
        {
          "internalType": "address",
          "name": "_initialOwner",
          "type": "address"
        }
      ],
      "stateMutability": "nonpayable",
      "type": "constructor"
    },
    {
      "inputs": [],
      "name": "DestinationAddressError",
      "type": "error"
    },
    {
      "inputs": [
        {
          "internalType": "uint64",
          "name": "destinationChainSelector",
          "type": "uint64"
        }
      ],
      "name": "DestinationChainNotAllowed",
      "type": "error"
    },
    {
      "inputs": [
        {
          "internalType": "address",
          "name": "owner",
          "type": "address"
        },
        {
          "internalType": "address",
          "name": "target",
          "type": "address"
        },
        {
          "internalType": "uint256",
          "name": "value",
          "type": "uint256"
        }
      ],
      "name": "FailedToWithdrawEth",
      "type": "error"
    },
    {
      "inputs": [],
      "name": "InvalidReceiverAddress",
      "type": "error"
    },
    {
      "inputs": [
        {
          "internalType": "address",
          "name": "router",
          "type": "address"
        }
      ],
      "name": "InvalidRouter",
      "type": "error"
    },
    {
      "inputs": [
        {
          "internalType": "uint256",
          "name": "currentBalance",
          "type": "uint256"
        },
        {
          "internalType": "uint256",
          "name": "calculatedFees",
          "type": "uint256"
        }
      ],
      "name": "NotEnoughBalance",
      "type": "error"
    },
    {
      "inputs": [],
      "name": "NothingToWithdraw",
      "type": "error"
    },
    {
      "inputs": [],
      "name": "OnlyProtocolIsAllowed",
      "type": "error"
    },
    {
      "inputs": [
        {
          "internalType": "address",
          "name": "owner",
          "type": "address"
        }
      ],
      "name": "OwnableInvalidOwner",
      "type": "error"
    },
    {
      "inputs": [
        {
          "internalType": "address",
          "name": "account",
          "type": "address"
        }
      ],
      "name": "OwnableUnauthorizedAccount",
      "type": "error"
    },
    {
      "inputs": [
        {
          "internalType": "address",
          "name": "sender",
          "type": "address"
        }
      ],
      "name": "SenderNotAllowed",
      "type": "error"
    },
    {
      "inputs": [
        {
          "internalType": "uint64",
          "name": "sourceChainSelector",
          "type": "uint64"
        }
      ],
      "name": "SourceChainNotAllowed",
      "type": "error"
    },
    {
      "anonymous": false,
      "inputs": [
        {
          "indexed": true,
          "internalType": "bytes32",
          "name": "messageId",
          "type": "bytes32"
        },
        {
          "indexed": true,
          "internalType": "uint64",
          "name": "sourceChainSelector",
          "type": "uint64"
        },
        {
          "indexed": false,
          "internalType": "address",
          "name": "sender",
          "type": "address"
        },
        {
          "indexed": false,
          "internalType": "bytes32",
          "name": "intentId",
          "type": "bytes32"
        },
        {
          "indexed": false,
          "internalType": "address",
          "name": "token",
          "type": "address"
        },
        {
          "indexed": false,
          "internalType": "uint256",
          "name": "tokenAmount",
          "type": "uint256"
        }
      ],
      "name": "MessageReceived",
      "type": "event"
    },
    {
      "anonymous": false,
      "inputs": [
        {
          "indexed": true,
          "internalType": "bytes32",
          "name": "messageId",
          "type": "bytes32"
        },
        {
          "indexed": true,
          "internalType": "uint64",
          "name": "destinationChainSelector",
          "type": "uint64"
        },
        {
          "indexed": false,
          "internalType": "address",
          "name": "receiver",
          "type": "address"
        },
        {
          "indexed": false,
          "internalType": "address",
          "name": "feeToken",
          "type": "address"
        },
        {
          "indexed": false,
          "internalType": "uint256",
          "name": "fees",
          "type": "uint256"
        }
      ],
      "name": "MessageSent",
      "type": "event"
    },
    {
      "anonymous": false,
      "inputs": [
        {
          "indexed": true,
          "internalType": "address",
          "name": "previousOwner",
          "type": "address"
        },
        {
          "indexed": true,
          "internalType": "address",
          "name": "newOwner",
          "type": "address"
        }
      ],
      "name": "OwnershipTransferred",
      "type": "event"
    },
    {
      "inputs": [
        {
          "internalType": "uint64",
          "name": "_destinationChainSelector",
          "type": "uint64"
        },
        {
          "internalType": "bool",
          "name": "allowed",
          "type": "bool"
        }
      ],
      "name": "allowlistDestinationChain",
      "outputs": [],
      "stateMutability": "nonpayable",
      "type": "function"
    },
    {
      "inputs": [
        {
          "internalType": "uint64",
          "name": "_sourceChainSelector",
          "type": "uint64"
        },
        {
          "internalType": "bool",
          "name": "allowed",
          "type": "bool"
        }
      ],
      "name": "allowlistSourceChain",
      "outputs": [],
      "stateMutability": "nonpayable",
      "type": "function"
    },
    {
      "inputs": [
        {
          "internalType": "uint64",
          "name": "",
          "type": "uint64"
        }
      ],
      "name": "allowlistedDestinationChains",
      "outputs": [
        {
          "internalType": "bool",
          "name": "",
          "type": "bool"
        }
      ],
      "stateMutability": "view",
      "type": "function"
    },
    {
      "inputs": [
        {
          "internalType": "address",
          "name": "",
          "type": "address"
        }
      ],
      "name": "allowlistedSenders",
      "outputs": [
        {
          "internalType": "bool",
          "name": "",
          "type": "bool"
        }
      ],
      "stateMutability": "view",
      "type": "function"
    },
    {
      "inputs": [
        {
          "internalType": "uint64",
          "name": "",
          "type": "uint64"
        }
      ],
      "name": "allowlistedSourceChains",
      "outputs": [
        {
          "internalType": "bool",
          "name": "",
          "type": "bool"
        }
      ],
      "stateMutability": "view",
      "type": "function"
    },
    {
      "inputs": [
        {
          "components": [
            {
              "internalType": "bytes32",
              "name": "messageId",
              "type": "bytes32"
            },
            {
              "internalType": "uint64",
              "name": "sourceChainSelector",
              "type": "uint64"
            },
            {
              "internalType": "bytes",
              "name": "sender",
              "type": "bytes"
            },
            {
              "internalType": "bytes",
              "name": "data",
              "type": "bytes"
            },
            {
              "components": [
                {
                  "internalType": "address",
                  "name": "token",
                  "type": "address"
                },
                {
                  "internalType": "uint256",
                  "name": "amount",
                  "type": "uint256"
                }
              ],
              "internalType": "struct Client.EVMTokenAmount[]",
              "name": "destTokenAmounts",
              "type": "tuple[]"
            }
          ],
          "internalType": "struct Client.Any2EVMMessage",
          "name": "message",
          "type": "tuple"
        }
      ],
      "name": "ccipReceive",
      "outputs": [],
      "stateMutability": "nonpayable",
      "type": "function"
    },
    {
      "inputs": [
        {
          "internalType": "uint64",
          "name": "chainSelector",
          "type": "uint64"
        }
      ],
      "name": "chainSelectorToBridgeAddress",
      "outputs": [
        {
          "internalType": "address",
          "name": "",
          "type": "address"
        }
      ],
      "stateMutability": "view",
      "type": "function"
    },
    {
      "inputs": [
        {
          "internalType": "address",
          "name": "_sender",
          "type": "address"
        },
        {
          "internalType": "bool",
          "name": "allowed",
          "type": "bool"
        }
      ],
      "name": "configureAllowListedSender",
      "outputs": [],
      "stateMutability": "nonpayable",
      "type": "function"
    },
    {
      "inputs": [
        {
          "internalType": "uint64",
          "name": "_chainSelector",
          "type": "uint64"
        },
        {
          "internalType": "address",
          "name": "_bridge",
          "type": "address"
        }
      ],
      "name": "configureDestinationBridgeAddress",
      "outputs": [],
      "stateMutability": "nonpayable",
      "type": "function"
    },
    {
      "inputs": [
        {
          "internalType": "uint64",
          "name": "_destinationChainSelector",
          "type": "uint64"
        },
        {
          "internalType": "bytes",
          "name": "_bridgeMsgData",
          "type": "bytes"
        },
        {
          "internalType": "address",
          "name": "_token",
          "type": "address"
        },
        {
          "internalType": "uint256",
          "name": "_amount",
          "type": "uint256"
        },
        {
          "internalType": "uint64",
          "name": "_gasLimit",
          "type": "uint64"
        }
      ],
      "name": "getFees",
      "outputs": [
        {
          "internalType": "uint256",
          "name": "_fee",
          "type": "uint256"
        }
      ],
      "stateMutability": "view",
      "type": "function"
    },
    {
      "inputs": [],
      "name": "getLastReceivedMessageDetails",
      "outputs": [
        {
          "internalType": "bytes32",
          "name": "messageId",
          "type": "bytes32"
        },
        {
          "components": [
            {
              "internalType": "bool",
              "name": "isBatch",
              "type": "bool"
            },
            {
              "internalType": "bytes",
              "name": "bridgeData",
              "type": "bytes"
            }
          ],
          "internalType": "struct DataTypes.BridgeMsgData",
          "name": "bridgeMsgData",
          "type": "tuple"
        },
        {
          "internalType": "address",
          "name": "tokenAddress",
          "type": "address"
        },
        {
          "internalType": "uint256",
          "name": "tokenAmount",
          "type": "uint256"
        }
      ],
      "stateMutability": "view",
      "type": "function"
    },
    {
      "inputs": [],
      "name": "getRouter",
      "outputs": [
        {
          "internalType": "address",
          "name": "",
          "type": "address"
        }
      ],
      "stateMutability": "view",
      "type": "function"
    },
    {
      "inputs": [],
      "name": "owner",
      "outputs": [
        {
          "internalType": "address",
          "name": "",
          "type": "address"
        }
      ],
      "stateMutability": "view",
      "type": "function"
    },
    {
      "inputs": [],
      "name": "protocol",
      "outputs": [
        {
          "internalType": "contract IBondProtocol",
          "name": "",
          "type": "address"
        }
      ],
      "stateMutability": "view",
      "type": "function"
    },
    {
      "inputs": [],
      "name": "renounceOwnership",
      "outputs": [],
      "stateMutability": "nonpayable",
      "type": "function"
    },
    {
      "inputs": [],
      "name": "s_lastReceivedMessageId",
      "outputs": [
        {
          "internalType": "bytes32",
          "name": "",
          "type": "bytes32"
        }
      ],
      "stateMutability": "view",
      "type": "function"
    },
    {
      "inputs": [],
      "name": "s_lastReceivedMsg",
      "outputs": [
        {
          "internalType": "bool",
          "name": "isBatch",
          "type": "bool"
        },
        {
          "internalType": "bytes",
          "name": "bridgeData",
          "type": "bytes"
        }
      ],
      "stateMutability": "view",
      "type": "function"
    },
    {
      "inputs": [],
      "name": "s_lastReceivedTokenAddress",
      "outputs": [
        {
          "internalType": "address",
          "name": "",
          "type": "address"
        }
      ],
      "stateMutability": "view",
      "type": "function"
    },
    {
      "inputs": [],
      "name": "s_lastReceivedTokenAmount",
      "outputs": [
        {
          "internalType": "uint256",
          "name": "",
          "type": "uint256"
        }
      ],
      "stateMutability": "view",
      "type": "function"
    },
    {
      "inputs": [
        {
          "internalType": "uint64",
          "name": "_destinationChainSelector",
          "type": "uint64"
        },
        {
          "internalType": "bytes",
          "name": "_bridgeMsgData",
          "type": "bytes"
        },
        {
          "internalType": "address",
          "name": "_token",
          "type": "address"
        },
        {
          "internalType": "uint256",
          "name": "_amount",
          "type": "uint256"
        },
        {
          "internalType": "uint64",
          "name": "_gasLimit",
          "type": "uint64"
        }
      ],
      "name": "sendMessage",
      "outputs": [
        {
          "internalType": "uint256",
          "name": "fees",
          "type": "uint256"
        },
        {
          "internalType": "bytes32",
          "name": "messageId",
          "type": "bytes32"
        }
      ],
      "stateMutability": "nonpayable",
      "type": "function"
    },
    {
      "inputs": [
        {
          "internalType": "bytes4",
          "name": "interfaceId",
          "type": "bytes4"
        }
      ],
      "name": "supportsInterface",
      "outputs": [
        {
          "internalType": "bool",
          "name": "",
          "type": "bool"
        }
      ],
      "stateMutability": "view",
      "type": "function"
    },
    {
      "inputs": [
        {
          "internalType": "address",
          "name": "newOwner",
          "type": "address"
        }
      ],
      "name": "transferOwnership",
      "outputs": [],
      "stateMutability": "nonpayable",
      "type": "function"
    },
    {
      "inputs": [
        {
          "internalType": "address",
          "name": "_beneficiary",
          "type": "address"
        }
      ],
      "name": "withdraw",
      "outputs": [],
      "stateMutability": "nonpayable",
      "type": "function"
    },
    {
      "inputs": [
        {
          "internalType": "address",
          "name": "_beneficiary",
          "type": "address"
        },
        {
          "internalType": "address",
          "name": "_token",
          "type": "address"
        }
      ],
      "name": "withdrawToken",
      "outputs": [],
      "stateMutability": "nonpayable",
      "type": "function"
    },
    {
      "stateMutability": "payable",
      "type": "receive"
    }
  ],
  "bytecode": "0x60a03461014857601f611da338819003918201601f19168301916001600160401b0383118484101761014c578084926080946040528339810103126101485761004781610160565b9061005460208201610160565b9161006d606061006660408501610160565b9301610160565b906001600160a01b03811615610135576080526001600160a01b0316918215610122575f80546001600160a01b031981168517825560405194916001600160a01b03909116907f8be0079c531659141344cd1fd0a4f28419497f9722a3daafe3b4186f6b6457e09080a3600b80546001600160a01b039283166001600160a01b03199182161790915560068054939092169216919091179055611c2e9081610175823960805181818161073401526108360152f35b631e4fbdf760e01b5f525f60045260245ffd5b6335fdcccd60e21b5f525f60045260245ffd5b5f80fd5b634e487b7160e01b5f52604160045260245ffd5b51906001600160a01b03821682036101485756fe608080604052600436101561001c575b50361561001a575f80fd5b005b5f3560e01c90816301ffc9a714611462575080630b33e1cf1461143a578063263596a5146113a0578063375aacdf146113605780633aeac4e1146111b95780634030d5211461117c57806348c883d61461113b57806351cff8d9146110ca5780636159ada11461108d578063715018a61461103657806375c67c6614610ff95780637719bb6d14610ed657806385572ffb146108045780638ce74426146107dc5780638da5cb5b146107b557806396d3b83d14610763578063b0f479a11461071f578063b165c04f146102f5578063b5605b2e146102d8578063bec0c86b146102bb578063db04fa4914610269578063eb1bd31f14610218578063efb9668d146101b95763f2fde38b14610130575f61000f565b346101b55760203660031901126101b5576101496114ef565b6101516118a9565b6001600160a01b031680156101a2575f80546001600160a01b03198116831782556001600160a01b0316907f8be0079c531659141344cd1fd0a4f28419497f9722a3daafe3b4186f6b6457e09080a3005b631e4fbdf760e01b5f525f60045260245ffd5b5f80fd5b346101b55760403660031901126101b5576101d26114d9565b6001600160401b036101e2611505565b916101eb6118a9565b165f908152600a6020526040902080546001600160a01b0319166001600160a01b03909216919091179055005b346101b55760403660031901126101b55761001a6102346114ef565b61023c6116ef565b906102456118a9565b60018060a01b03165f52600960205260405f209060ff801983541691151516179055565b346101b55760403660031901126101b55761001a6102856114d9565b6001600160401b036102956116ef565b9161029e6118a9565b165f52600860205260405f209060ff801983541691151516179055565b346101b5575f3660031901126101b5576020600354604051908152f35b346101b5575f3660031901126101b5576020600154604051908152f35b346101b55761030336611661565b6006549093919291906001600160a01b03163303610710576001600160401b03861693845f52600760205260ff60405f205416156106fd575f858152600a60205260409020546001600160a01b031680156106ee57600b546001600160a01b03169661037593889287928792916118dc565b9160405163b0f479a160e01b8152602081600481305afa90811561051a575f916106bf575b506040516320487ded60e01b8152956001600160a01b03919091169290602087806103c9888c60048401611767565b0381875afa96871561051a575f9761068b575b506040516370a0823160e01b8152306004820152602081602481855afa90811561051a575f91610659575b5087116105e45760405163095ea7b360e01b81526001600160a01b03851660048201526024810188905290602090829060449082905f905af1801561051a576105ad575b506001600160a01b03169081610525575b505090602091610483955f6040518098819582946396f4e9f960e01b845260048401611767565b03925af190811561051a575f916104e5575b60409350817f9fb548811cfe022ba6400d8533a80d63fbc228e596f93603959dc47b1886af54606060018060a01b03600b541687519033825260208201528688820152a382519182526020820152f35b90506020833d602011610512575b8161050060209383611589565b810103126101b5576040925190610495565b3d91506104f3565b6040513d5f823e3d90fd5b60405163095ea7b360e01b81526001600160a01b0384166004820152602481019190915290602090829060449082905f905af1801561051a57610569575b8061045c565b91906020833d6020116105a5575b8161058460209383611589565b810103126101b5576104839561059b60209461189c565b5095509091610563565b3d9150610577565b6020813d6020116105dc575b816105c660209383611589565b810103126101b5576105d79061189c565b61044b565b3d91506105b9565b602460208892604051928380926370a0823160e01b82523060048301525afa90811561051a575f91610627575b50634787a10360e11b5f5260045260245260445ffd5b90506020813d602011610651575b8161064260209383611589565b810103126101b5575182610611565b3d9150610635565b90506020813d602011610683575b8161067460209383611589565b810103126101b5575189610407565b3d9150610667565b9096506020813d6020116106b7575b816106a760209383611589565b810103126101b5575195886103dc565b3d915061069a565b6106e1915060203d6020116106e7575b6106d98183611589565b810190611748565b8761039a565b503d6106cf565b631f37798d60e11b5f5260045ffd5b8463206abad760e01b5f5260045260245ffd5b635eb1828960e11b5f5260045ffd5b346101b5575f3660031901126101b5576040517f00000000000000000000000000000000000000000000000000000000000000006001600160a01b03168152602090f35b346101b55760403660031901126101b55761001a61077f6114d9565b6001600160401b0361078f6116ef565b916107986118a9565b165f52600760205260405f209060ff801983541691151516179055565b346101b5575f3660031901126101b5575f546040516001600160a01b039091168152602090f35b346101b5575f3660031901126101b5576006546040516001600160a01b039091168152602090f35b346101b55760203660031901126101b5576004356001600160401b0381116101b55760a060031982360301126101b5577f00000000000000000000000000000000000000000000000000000000000000006001600160a01b03163303610ec3576040516108708161156e565b816004013581526024820135906001600160401b03821682036101b5576020810191825260448301356001600160401b0381116101b5576108b7906004369186010161186a565b926040820193845260648101356001600160401b0381116101b5576108e2906004369184010161186a565b90606083019182526084810135906001600160401b0382116101b5570190366023830112156101b557600482013561091981611885565b926109276040519485611589565b818452602060048186019360061b83010101903682116101b557602401915b818310610e7e57505050608083019182526001600160401b03845116855161097e60018060a01b039160208082518301019101611748565b1690805f52600860205260ff60405f20541615610e6c5750805f52600960205260ff60405f20541615610e5a57505f925f9280518051610e26575b505081519384518501946020818703126101b5576020810151906001600160401b0382116101b55701946040868203126101b557604051956109fa87611553565b610a066020820161189c565b87526040810151916001600160401b0383116101b557610a2d926020809201920101611aa9565b90602086019180835283516001558651151560ff8019600454169116176004558051906001600160401b038211610e12578190610a6b60055461151b565b601f8111610dc1575b50602090601f8311600114610d5b575f92610d50575b50508160011b915f199060031b1c1916176005555b600280546001600160a01b0319166001600160a01b0392909216918217905560038590559451610be5575180518101906020818303126101b5576020810151916001600160401b0383116101b557610afe926020809201920101611aef565b90602060018060a01b03600654169201516001600160401b03875116833b156101b557610b44935f9283604051809781958294638e4960ff60e01b845260048401611b34565b03925af190811561051a57610b78926001600160401b0392610bd5575b505b51955116955160208082518301019101611748565b905191602083519381808201958692010103126101b5577f47db43efa9b1440e39104887f88e98a927f79d8dca5f9075a9607d0111a9154f93608093516040519360018060a01b03168452602084015260408301526060820152a3005b5f610bdf91611589565b88610b61565b9592909493919551958651870196602081818a019903126101b5576020810151906001600160401b0382116101b557019680603f890112156101b5576020880151610c2f81611885565b98610c3d6040519a8b611589565b818a52602080808c019360051b83010101918383116101b55760408201905b838210610d215750505050505f5b8751811015610d085760018060a01b0360065416908851811015610cf4576020808260051b8b01015101516001600160401b03885116833b156101b557610cca935f9283604051809781958294638e4960ff60e01b845260048401611b34565b03925af191821561051a57600192610ce4575b5001610c6a565b5f610cee91611589565b89610cdd565b634e487b7160e01b5f52603260045260245ffd5b50919394610b78919396506001600160401b0390610b63565b81516001600160401b0381116101b557602091610d45878480809589010101611aef565b815201910190610c5c565b015190508a80610a8a565b60055f9081528281209350601f198516905b818110610da95750908460019594939210610d91575b505050811b01600555610a9f565b01515f1960f88460031b161c191690558a8080610d83565b92936020600181928786015181550195019301610d6d565b90915060055f5260205f20601f840160051c81019160208510610e08575b90601f859493920160051c01905b818110610dfa5750610a74565b5f8155849350600101610ded565b9091508190610ddf565b634e487b7160e01b5f52604160045260245ffd5b909450909250602090610e4f906001600160a01b0390610e45906118cf565b51511694516118cf565b5101519186806109b9565b6368692cbb60e11b5f5260045260245ffd5b63042784cf60e31b5f5260045260245ffd5b6040833603126101b55760405190610e9582611553565b8335906001600160a01b03821682036101b55782602092604094528286013583820152815201920191610946565b6335fdcccd60e21b5f523360045260245ffd5b346101b557610ee436611661565b600654909392906001600160a01b03163303610710576001600160401b0386165f908152600a60205260409020546001600160a01b03169283156106ee57600b54610f3a966001600160a01b03909116946118dc565b60405163b0f479a160e01b815290602082600481305afa801561051a57610f82936020935f92610fda575b506040518095819482936320487ded60e01b845260048401611767565b03916001600160a01b03165afa801561051a575f90610fa7575b602090604051908152f35b506020813d602011610fd2575b81610fc160209383611589565b810103126101b55760209051610f9c565b3d9150610fb4565b610ff2919250843d86116106e7576106d98183611589565b9085610f65565b346101b55760203660031901126101b5576001600160401b0361101a6114d9565b165f526007602052602060ff60405f2054166040519015158152f35b346101b5575f3660031901126101b55761104e6118a9565b5f80546001600160a01b0319811682556001600160a01b03167f8be0079c531659141344cd1fd0a4f28419497f9722a3daafe3b4186f6b6457e08280a3005b346101b55760203660031901126101b5576001600160a01b036110ae6114ef565b165f526009602052602060ff60405f2054166040519015158152f35b346101b55760203660031901126101b5576110e36114ef565b6110eb6118a9565b4790811561112c575f80808085855af1611103611719565b501561110b57005b639d11f56360e01b5f523360045260018060a01b031660245260445260645ffd5b630686827b60e51b5f5260045ffd5b346101b5575f3660031901126101b55760ff600454166111596115aa565b90611178604051928392151583526040602084015260408301906114b5565b0390f35b346101b55760203660031901126101b5576001600160401b0361119d6114d9565b165f526008602052602060ff60405f2054166040519015158152f35b346101b55760403660031901126101b5576111d26114ef565b6111da611505565b6111e26118a9565b6040516370a0823160e01b8152306004820152906001600160a01b0316602082602481845afa91821561051a575f9261132c575b50811561112c5760405163a9059cbb60e01b602082019081526001600160a01b039490941660248201526044808201939093529182526112ac925f90819061125f606486611589565b6040519461126e604087611589565b602086527f5361666545524332303a206c6f772d6c6576656c2063616c6c206661696c65646020870152519082855af16112a6611719565b91611b5b565b8051806112b557005b81602091810103126101b55760206112cd910161189c565b156112d457005b60405162461bcd60e51b815260206004820152602a60248201527f5361666545524332303a204552433230206f7065726174696f6e20646964206e6044820152691bdd081cdd58d8d9595960b21b6064820152608490fd5b9091506020813d602011611358575b8161134860209383611589565b810103126101b557519083611216565b3d915061133b565b346101b55760203660031901126101b5576001600160401b036113816114d9565b165f52600a602052602060018060a01b0360405f205416604051908152f35b346101b5575f3660031901126101b557606060206040516113c081611553565b5f8152015260015460025460035460405192916001600160a01b0316906113e684611553565b60ff600454161515845261142b6113fb6115aa565b60208601908152604051958695865260806020870152511515608086015251604060a086015260c08501906114b5565b91604084015260608301520390f35b346101b5575f3660031901126101b5576002546040516001600160a01b039091168152602090f35b346101b55760203660031901126101b5576004359063ffffffff60e01b82168092036101b5576020916385572ffb60e01b81149081156114a4575b5015158152f35b6301ffc9a760e01b1490508361149d565b805180835260209291819084018484015e5f828201840152601f01601f1916010190565b600435906001600160401b03821682036101b557565b600435906001600160a01b03821682036101b557565b602435906001600160a01b03821682036101b557565b90600182811c92168015611549575b602083101461153557565b634e487b7160e01b5f52602260045260245ffd5b91607f169161152a565b604081019081106001600160401b03821117610e1257604052565b60a081019081106001600160401b03821117610e1257604052565b90601f801991011681019081106001600160401b03821117610e1257604052565b604051905f82600554916115bd8361151b565b808352926001811690811561164257506001146115e3575b6115e192500383611589565b565b5060055f90815290917f036b6384b5eca791c62761152d0c79bb0604c104a5fb6f4eb0703f3154bb3db05b8183106116265750509060206115e1928201016115d5565b602091935080600191548385890101520191019091849261160e565b602092506115e194915060ff191682840152151560051b8201016115d5565b60a06003198201126101b5576004356001600160401b03811681036101b557916024356001600160401b0381116101b557826023820112156101b5578060040135926001600160401b0384116101b557602484830101116101b55760240191906044356001600160a01b03811681036101b55790606435906084356001600160401b03811681036101b55790565b6024359081151582036101b557565b6001600160401b038111610e1257601f01601f191660200190565b3d15611743573d9061172a826116fe565b916117386040519384611589565b82523d5f602084013e565b606090565b908160209103126101b557516001600160a01b03811681036101b55790565b906001600160401b0390939293168152604060208201526117ad611797845160a0604085015260e08401906114b5565b6020850151838203603f190160608501526114b5565b90604084015191603f19828203016080830152602080845192838152019301905f5b818110611809575050506080611806939460018060a01b0360608201511660a084015201519060c0603f19828503019101526114b5565b90565b825180516001600160a01b0316865260209081015181870152604090950194909201916001016117cf565b929192611840826116fe565b9161184e6040519384611589565b8294818452818301116101b5578281602093845f960137010152565b9080601f830112156101b55781602061180693359101611834565b6001600160401b038111610e125760051b60200190565b519081151582036101b557565b5f546001600160a01b031633036118bc57565b63118cdaa760e01b5f523360045260245ffd5b805115610cf45760200190565b959294939094606060806040516118f28161156e565b82815260208101839052604081018390525f8184015201526001600160a01b031680611a30575050604051611928602082611589565b5f81525f805b818110611a0d575050915b6040519560018060a01b0316602087015260208652611959604087611589565b60011b936801fffffffffffffffe67fffffffffffffffe8616951685036119f9576119d9916040519561198b87611553565b8652602086016001815260405196630181dcf160e41b60208901525160248801525115156044870152604486526119c3606487611589565b604051966119d08861156e565b87523691611834565b602085015260408401526001600160a01b03166060830152608082015290565b634e487b7160e01b5f52601160045260245ffd5b602090604051611a1c81611553565b5f81525f838201528282860101520161192e565b909290604080519190611a438184611589565b60018352601f19015f5b818110611a8657505090611a8091819560405191611a6a83611553565b82526020820152611a7a826118cf565b526118cf565b50611939565b602090604051611a9581611553565b5f81525f8382015282828701015201611a4d565b81601f820112156101b557805190611ac0826116fe565b92611ace6040519485611589565b828452602083830101116101b557815f9260208093018386015e8301015290565b91906040838203126101b55760405190611b0882611553565b8193805183526020810151916001600160401b0383116101b557602092611b2f9201611aa9565b910152565b906001600160401b03611b546020929594956040855260408501906114b5565b9416910152565b91929015611bbd5750815115611b6f575090565b3b15611b785790565b60405162461bcd60e51b815260206004820152601d60248201527f416464726573733a2063616c6c20746f206e6f6e2d636f6e74726163740000006044820152606490fd5b825190915015611bd05750805190602001fd5b60405162461bcd60e51b815260206004820152908190611bf49060248301906114b5565b0390fdfea264697066735822122068fe7d3d07c4f2a8888dc57881591d11f3b4b25dcc1a3d05e7a571078fbd2a1864736f6c634300081c0033",
  "linkReferences": {},
  "deployedLinkReferences": {},
  "immutableReferences": {
    "1089": [
      {
        "length": 32,
        "start": 1844
      },
      {
        "length": 32,
        "start": 2102
      }
    ]
  },
  "inputSourceName": "contracts/protocol/BondBridge.sol",
  "buildInfoId": "d3fdd83f9af477cca4791e8388486b90fa5b584f"
}