{
  "_format": "hh3-artifact-1",
  "contractName": "BondBridge",
  "sourceName": "contracts/protocol/BondBridge.sol",
  "abi": [
    {
      "inputs": [
        {
          "internalType": "address",
          "name": "_router",
          "type": "address"
        },
        {
          "internalType": "address",
          "name": "_link",
          "type": "address"
        },
        {
          "internalType": "address",
          "name": "_protocol",
          "type": "address"
        },
        {
          "internalType": "address",
          "name": "_initialOwner",
          "type": "address"
        }
      ],
      "stateMutability": "nonpayable",
      "type": "constructor"
    },
    {
      "inputs": [],
      "name": "DestinationAddressError",
      "type": "error"
    },
    {
      "inputs": [
        {
          "internalType": "uint64",
          "name": "destinationChainSelector",
          "type": "uint64"
        }
      ],
      "name": "DestinationChainNotAllowed",
      "type": "error"
    },
    {
      "inputs": [
        {
          "internalType": "address",
          "name": "owner",
          "type": "address"
        },
        {
          "internalType": "address",
          "name": "target",
          "type": "address"
        },
        {
          "internalType": "uint256",
          "name": "value",
          "type": "uint256"
        }
      ],
      "name": "FailedToWithdrawEth",
      "type": "error"
    },
    {
      "inputs": [],
      "name": "InvalidReceiverAddress",
      "type": "error"
    },
    {
      "inputs": [
        {
          "internalType": "address",
          "name": "router",
          "type": "address"
        }
      ],
      "name": "InvalidRouter",
      "type": "error"
    },
    {
      "inputs": [
        {
          "internalType": "uint256",
          "name": "currentBalance",
          "type": "uint256"
        },
        {
          "internalType": "uint256",
          "name": "calculatedFees",
          "type": "uint256"
        }
      ],
      "name": "NotEnoughBalance",
      "type": "error"
    },
    {
      "inputs": [],
      "name": "NothingToWithdraw",
      "type": "error"
    },
    {
      "inputs": [],
      "name": "OnlyProtocolIsAllowed",
      "type": "error"
    },
    {
      "inputs": [
        {
          "internalType": "address",
          "name": "owner",
          "type": "address"
        }
      ],
      "name": "OwnableInvalidOwner",
      "type": "error"
    },
    {
      "inputs": [
        {
          "internalType": "address",
          "name": "account",
          "type": "address"
        }
      ],
      "name": "OwnableUnauthorizedAccount",
      "type": "error"
    },
    {
      "inputs": [
        {
          "internalType": "address",
          "name": "sender",
          "type": "address"
        }
      ],
      "name": "SenderNotAllowed",
      "type": "error"
    },
    {
      "inputs": [
        {
          "internalType": "uint64",
          "name": "sourceChainSelector",
          "type": "uint64"
        }
      ],
      "name": "SourceChainNotAllowed",
      "type": "error"
    },
    {
      "anonymous": false,
      "inputs": [
        {
          "indexed": true,
          "internalType": "bytes32",
          "name": "messageId",
          "type": "bytes32"
        },
        {
          "indexed": true,
          "internalType": "uint64",
          "name": "sourceChainSelector",
          "type": "uint64"
        },
        {
          "indexed": false,
          "internalType": "address",
          "name": "sender",
          "type": "address"
        },
        {
          "indexed": false,
          "internalType": "bytes32",
          "name": "intentId",
          "type": "bytes32"
        },
        {
          "indexed": false,
          "internalType": "address",
          "name": "token",
          "type": "address"
        },
        {
          "indexed": false,
          "internalType": "uint256",
          "name": "tokenAmount",
          "type": "uint256"
        }
      ],
      "name": "MessageReceived",
      "type": "event"
    },
    {
      "anonymous": false,
      "inputs": [
        {
          "indexed": true,
          "internalType": "bytes32",
          "name": "messageId",
          "type": "bytes32"
        },
        {
          "indexed": true,
          "internalType": "uint64",
          "name": "destinationChainSelector",
          "type": "uint64"
        },
        {
          "indexed": false,
          "internalType": "address",
          "name": "receiver",
          "type": "address"
        },
        {
          "indexed": false,
          "internalType": "address",
          "name": "feeToken",
          "type": "address"
        },
        {
          "indexed": false,
          "internalType": "uint256",
          "name": "fees",
          "type": "uint256"
        }
      ],
      "name": "MessageSent",
      "type": "event"
    },
    {
      "anonymous": false,
      "inputs": [
        {
          "indexed": true,
          "internalType": "address",
          "name": "previousOwner",
          "type": "address"
        },
        {
          "indexed": true,
          "internalType": "address",
          "name": "newOwner",
          "type": "address"
        }
      ],
      "name": "OwnershipTransferred",
      "type": "event"
    },
    {
      "inputs": [
        {
          "internalType": "uint64",
          "name": "_destinationChainSelector",
          "type": "uint64"
        },
        {
          "internalType": "bool",
          "name": "allowed",
          "type": "bool"
        }
      ],
      "name": "allowlistDestinationChain",
      "outputs": [],
      "stateMutability": "nonpayable",
      "type": "function"
    },
    {
      "inputs": [
        {
          "internalType": "uint64",
          "name": "_sourceChainSelector",
          "type": "uint64"
        },
        {
          "internalType": "bool",
          "name": "allowed",
          "type": "bool"
        }
      ],
      "name": "allowlistSourceChain",
      "outputs": [],
      "stateMutability": "nonpayable",
      "type": "function"
    },
    {
      "inputs": [
        {
          "internalType": "uint64",
          "name": "",
          "type": "uint64"
        }
      ],
      "name": "allowlistedDestinationChains",
      "outputs": [
        {
          "internalType": "bool",
          "name": "",
          "type": "bool"
        }
      ],
      "stateMutability": "view",
      "type": "function"
    },
    {
      "inputs": [
        {
          "internalType": "address",
          "name": "",
          "type": "address"
        }
      ],
      "name": "allowlistedSenders",
      "outputs": [
        {
          "internalType": "bool",
          "name": "",
          "type": "bool"
        }
      ],
      "stateMutability": "view",
      "type": "function"
    },
    {
      "inputs": [
        {
          "internalType": "uint64",
          "name": "",
          "type": "uint64"
        }
      ],
      "name": "allowlistedSourceChains",
      "outputs": [
        {
          "internalType": "bool",
          "name": "",
          "type": "bool"
        }
      ],
      "stateMutability": "view",
      "type": "function"
    },
    {
      "inputs": [
        {
          "components": [
            {
              "internalType": "bytes32",
              "name": "messageId",
              "type": "bytes32"
            },
            {
              "internalType": "uint64",
              "name": "sourceChainSelector",
              "type": "uint64"
            },
            {
              "internalType": "bytes",
              "name": "sender",
              "type": "bytes"
            },
            {
              "internalType": "bytes",
              "name": "data",
              "type": "bytes"
            },
            {
              "components": [
                {
                  "internalType": "address",
                  "name": "token",
                  "type": "address"
                },
                {
                  "internalType": "uint256",
                  "name": "amount",
                  "type": "uint256"
                }
              ],
              "internalType": "struct Client.EVMTokenAmount[]",
              "name": "destTokenAmounts",
              "type": "tuple[]"
            }
          ],
          "internalType": "struct Client.Any2EVMMessage",
          "name": "message",
          "type": "tuple"
        }
      ],
      "name": "ccipReceive",
      "outputs": [],
      "stateMutability": "nonpayable",
      "type": "function"
    },
    {
      "inputs": [
        {
          "internalType": "uint64",
          "name": "chainSelector",
          "type": "uint64"
        }
      ],
      "name": "chainSelectorToBridgeAddress",
      "outputs": [
        {
          "internalType": "address",
          "name": "",
          "type": "address"
        }
      ],
      "stateMutability": "view",
      "type": "function"
    },
    {
      "inputs": [
        {
          "internalType": "address",
          "name": "_sender",
          "type": "address"
        },
        {
          "internalType": "bool",
          "name": "allowed",
          "type": "bool"
        }
      ],
      "name": "configureAllowListedSender",
      "outputs": [],
      "stateMutability": "nonpayable",
      "type": "function"
    },
    {
      "inputs": [
        {
          "internalType": "uint64",
          "name": "_chainSelector",
          "type": "uint64"
        },
        {
          "internalType": "address",
          "name": "_bridge",
          "type": "address"
        }
      ],
      "name": "configureDestinationBridgeAddress",
      "outputs": [],
      "stateMutability": "nonpayable",
      "type": "function"
    },
    {
      "inputs": [
        {
          "internalType": "uint64",
          "name": "_destinationChainSelector",
          "type": "uint64"
        },
        {
          "internalType": "bytes",
          "name": "_bridgeMsgData",
          "type": "bytes"
        },
        {
          "internalType": "address",
          "name": "_token",
          "type": "address"
        },
        {
          "internalType": "uint256",
          "name": "_amount",
          "type": "uint256"
        },
        {
          "internalType": "uint64",
          "name": "_gasLimit",
          "type": "uint64"
        }
      ],
      "name": "getFees",
      "outputs": [
        {
          "internalType": "uint256",
          "name": "_fee",
          "type": "uint256"
        }
      ],
      "stateMutability": "view",
      "type": "function"
    },
    {
      "inputs": [],
      "name": "getLastReceivedMessageDetails",
      "outputs": [
        {
          "internalType": "bytes32",
          "name": "messageId",
          "type": "bytes32"
        },
        {
          "components": [
            {
              "internalType": "bool",
              "name": "isBatch",
              "type": "bool"
            },
            {
              "internalType": "bytes",
              "name": "bridgeData",
              "type": "bytes"
            }
          ],
          "internalType": "struct DataTypes.BridgeMsgData",
          "name": "bridgeMsgData",
          "type": "tuple"
        },
        {
          "internalType": "address",
          "name": "tokenAddress",
          "type": "address"
        },
        {
          "internalType": "uint256",
          "name": "tokenAmount",
          "type": "uint256"
        }
      ],
      "stateMutability": "view",
      "type": "function"
    },
    {
      "inputs": [],
      "name": "getRouter",
      "outputs": [
        {
          "internalType": "address",
          "name": "",
          "type": "address"
        }
      ],
      "stateMutability": "view",
      "type": "function"
    },
    {
      "inputs": [],
      "name": "owner",
      "outputs": [
        {
          "internalType": "address",
          "name": "",
          "type": "address"
        }
      ],
      "stateMutability": "view",
      "type": "function"
    },
    {
      "inputs": [],
      "name": "protocol",
      "outputs": [
        {
          "internalType": "contract IBondProtocol",
          "name": "",
          "type": "address"
        }
      ],
      "stateMutability": "view",
      "type": "function"
    },
    {
      "inputs": [],
      "name": "renounceOwnership",
      "outputs": [],
      "stateMutability": "nonpayable",
      "type": "function"
    },
    {
      "inputs": [
        {
          "internalType": "uint64",
          "name": "_destinationChainSelector",
          "type": "uint64"
        },
        {
          "internalType": "bytes",
          "name": "_bridgeMsgData",
          "type": "bytes"
        },
        {
          "internalType": "address",
          "name": "_token",
          "type": "address"
        },
        {
          "internalType": "uint256",
          "name": "_amount",
          "type": "uint256"
        },
        {
          "internalType": "uint64",
          "name": "_gasLimit",
          "type": "uint64"
        }
      ],
      "name": "sendMessage",
      "outputs": [
        {
          "internalType": "uint256",
          "name": "fees",
          "type": "uint256"
        },
        {
          "internalType": "bytes32",
          "name": "messageId",
          "type": "bytes32"
        }
      ],
      "stateMutability": "nonpayable",
      "type": "function"
    },
    {
      "inputs": [
        {
          "internalType": "bytes4",
          "name": "interfaceId",
          "type": "bytes4"
        }
      ],
      "name": "supportsInterface",
      "outputs": [
        {
          "internalType": "bool",
          "name": "",
          "type": "bool"
        }
      ],
      "stateMutability": "view",
      "type": "function"
    },
    {
      "inputs": [
        {
          "internalType": "address",
          "name": "newOwner",
          "type": "address"
        }
      ],
      "name": "transferOwnership",
      "outputs": [],
      "stateMutability": "nonpayable",
      "type": "function"
    },
    {
      "inputs": [
        {
          "internalType": "address",
          "name": "_beneficiary",
          "type": "address"
        }
      ],
      "name": "withdraw",
      "outputs": [],
      "stateMutability": "nonpayable",
      "type": "function"
    },
    {
      "inputs": [
        {
          "internalType": "address",
          "name": "_beneficiary",
          "type": "address"
        },
        {
          "internalType": "address",
          "name": "_token",
          "type": "address"
        }
      ],
      "name": "withdrawToken",
      "outputs": [],
      "stateMutability": "nonpayable",
      "type": "function"
    },
    {
      "stateMutability": "payable",
      "type": "receive"
    }
  ],
  "bytecode": "0x60a03461014857601f611d3e38819003918201601f19168301916001600160401b0383118484101761014c578084926080946040528339810103126101485761004781610160565b9061005460208201610160565b9161006d606061006660408501610160565b9301610160565b906001600160a01b03811615610135576080526001600160a01b0316918215610122575f80546001600160a01b031981168517825560405194916001600160a01b03909116907f8be0079c531659141344cd1fd0a4f28419497f9722a3daafe3b4186f6b6457e09080a3600b80546001600160a01b039283166001600160a01b03199182161790915560068054939092169216919091179055611bc9908161017582396080518181816106ce01526107d00152f35b631e4fbdf760e01b5f525f60045260245ffd5b6335fdcccd60e21b5f525f60045260245ffd5b5f80fd5b634e487b7160e01b5f52604160045260245ffd5b51906001600160a01b03821682036101485756fe608080604052600436101561001c575b50361561001a575f80fd5b005b5f3560e01c90816301ffc9a7146114da57508063263596a514611390578063375aacdf146113505780633aeac4e1146111a95780634030d5211461116c57806351cff8d9146110fb5780636159ada1146110be578063715018a61461106757806375c67c661461102a5780637719bb6d14610f0757806385572ffb1461079e5780638ce74426146107765780638da5cb5b1461074f57806396d3b83d146106fd578063b0f479a1146106b9578063b165c04f1461028f578063db04fa491461023d578063eb1bd31f146101ec578063efb9668d1461018d5763f2fde38b14610104575f61000f565b346101895760203660031901126101895761011d611567565b61012561186a565b6001600160a01b03168015610176575f80546001600160a01b03198116831782556001600160a01b0316907f8be0079c531659141344cd1fd0a4f28419497f9722a3daafe3b4186f6b6457e09080a3005b631e4fbdf760e01b5f525f60045260245ffd5b5f80fd5b34610189576040366003190112610189576101a6611551565b6001600160401b036101b661157d565b916101bf61186a565b165f908152600a6020526040902080546001600160a01b0319166001600160a01b03909216919091179055005b346101895760403660031901126101895761001a610208611567565b610210611621565b9061021961186a565b60018060a01b03165f52600960205260405f209060ff801983541691151516179055565b346101895760403660031901126101895761001a610259611551565b6001600160401b03610269611621565b9161027261186a565b165f52600860205260405f209060ff801983541691151516179055565b346101895761029d36611593565b6006549093919291906001600160a01b031633036106aa576001600160401b03861693845f52600760205260ff60405f20541615610697575f858152600a60205260409020546001600160a01b0316801561068857600b546001600160a01b03169661030f938892879287929161189d565b9160405163b0f479a160e01b8152602081600481305afa9081156104b4575f91610659575b506040516320487ded60e01b8152956001600160a01b0391909116929060208780610363888c60048401611728565b0381875afa9687156104b4575f97610625575b506040516370a0823160e01b8152306004820152602081602481855afa9081156104b4575f916105f3575b50871161057e5760405163095ea7b360e01b81526001600160a01b03851660048201526024810188905290602090829060449082905f905af180156104b457610547575b506001600160a01b031690816104bf575b50509060209161041d955f6040518098819582946396f4e9f960e01b845260048401611728565b03925af19081156104b4575f9161047f575b60409350817f9fb548811cfe022ba6400d8533a80d63fbc228e596f93603959dc47b1886af54606060018060a01b03600b541687519033825260208201528688820152a382519182526020820152f35b90506020833d6020116104ac575b8161049a60209383611666565b8101031261018957604092519061042f565b3d915061048d565b6040513d5f823e3d90fd5b60405163095ea7b360e01b81526001600160a01b0384166004820152602481019190915290602090829060449082905f905af180156104b457610503575b806103f6565b91906020833d60201161053f575b8161051e60209383611666565b810103126101895761041d9561053560209461185d565b50955090916104fd565b3d9150610511565b6020813d602011610576575b8161056060209383611666565b81010312610189576105719061185d565b6103e5565b3d9150610553565b602460208892604051928380926370a0823160e01b82523060048301525afa9081156104b4575f916105c1575b50634787a10360e11b5f5260045260245260445ffd5b90506020813d6020116105eb575b816105dc60209383611666565b810103126101895751826105ab565b3d91506105cf565b90506020813d60201161061d575b8161060e60209383611666565b810103126101895751896103a1565b3d9150610601565b9096506020813d602011610651575b8161064160209383611666565b8101031261018957519588610376565b3d9150610634565b61067b915060203d602011610681575b6106738183611666565b810190611709565b87610334565b503d610669565b631f37798d60e11b5f5260045ffd5b8463206abad760e01b5f5260045260245ffd5b635eb1828960e11b5f5260045ffd5b34610189575f366003190112610189576040517f00000000000000000000000000000000000000000000000000000000000000006001600160a01b03168152602090f35b346101895760403660031901126101895761001a610719611551565b6001600160401b03610729611621565b9161073261186a565b165f52600760205260405f209060ff801983541691151516179055565b34610189575f366003190112610189575f546040516001600160a01b039091168152602090f35b34610189575f366003190112610189576006546040516001600160a01b039091168152602090f35b34610189576020366003190112610189576004356001600160401b0381116101895760a06003198236030112610189577f00000000000000000000000000000000000000000000000000000000000000006001600160a01b03163303610ef45760405161080a8161164b565b816004013581526024820135906001600160401b0382168203610189576020810191825260448301356001600160401b03811161018957610851906004369186010161182b565b926040820193845260648101356001600160401b0381116101895761087c906004369184010161182b565b90606083019182526084810135906001600160401b038211610189570191366023840112156101895760048301356108b381611846565b936108c16040519586611666565b818552602060048187019360061b830101019036821161018957602401915b818310610eaf57505050608081019283526001600160401b03845116855161091860018060a01b039160208082518301019101611709565b1690805f52600860205260ff60405f20541615610e9d5750805f52600960205260ff60405f20541615610e8b575082516001600160a01b039061095a90611890565b51511660206109698551611890565b5101518351908151820191602081840312610189576020810151906001600160401b03821161018957019160408382031261018957604051926109ab84611630565b6109b76020820161185d565b84526040810151916001600160401b038311610189576109de926020809201920101611a44565b92602083019380855285516001558351151560ff8019600454169116176004558051906001600160401b038211610e77578190610a1c600554611687565b601f8111610e26575b50602090601f8311600114610dc0575f92610db5575b50508160011b915f199060031b1c1916176005555b806bffffffffffffffffffffffff60a01b60025416176002558160035580151580610dac575b610d2c575b505051610bc357518051810190602081830312610189576020810151916001600160401b03831161018957610ab7926020809201920101611a8a565b90602060018060a01b03600654169201516001600160401b03865116833b1561018957610afd935f9283604051809781958294638e4960ff60e01b845260048401611acf565b03925af19081156104b457610b31926001600160401b0392610bb3575b505b51945116945160208082518301019101611709565b90519060208251928180820194859201010312610189577f47db43efa9b1440e39104887f88e98a927f79d8dca5f9075a9607d0111a9154f9260809251906020610b8f60018060a01b03610b858451611890565b5151169251611890565b510151916040519360018060a01b03168452602084015260408301526060820152a3005b5f610bbd91611666565b87610b1a565b9491949392909351948551860195602081818901980312610189576020810151906001600160401b03821161018957019580603f88011215610189576020870151610c0d81611846565b97610c1b604051998a611666565b818952602080808b019360051b83010101918383116101895760408201905b838210610cfd5750505050505f5b8651811015610ce65760018060a01b0360065416908751811015610cd2576020808260051b8a01015101516001600160401b03875116833b1561018957610ca8935f9283604051809781958294638e4960ff60e01b845260048401611acf565b03925af19182156104b457600192610cc2575b5001610c48565b5f610ccc91611666565b88610cbb565b634e487b7160e01b5f52603260045260245ffd5b5091945091926001600160401b03610b3191610b1c565b81516001600160401b03811161018957602091610d21878480809589010101611a8a565b815201910190610c3a565b60065460405163a9059cbb60e01b81526001600160a01b0390911660048201526024810192909252602090829060449082905f905af180156104b457610d73575b80610a7b565b6020813d602011610da4575b81610d8c60209383611666565b8101031261018957610d9d9061185d565b5087610d6d565b3d9150610d7f565b50811515610a76565b015190508b80610a3b565b60055f9081528281209350601f198516905b818110610e0e5750908460019594939210610df6575b505050811b01600555610a50565b01515f1960f88460031b161c191690558b8080610de8565b92936020600181928786015181550195019301610dd2565b90915060055f5260205f20601f840160051c81019160208510610e6d575b90601f859493920160051c01905b818110610e5f5750610a25565b5f8155849350600101610e52565b9091508190610e44565b634e487b7160e01b5f52604160045260245ffd5b6368692cbb60e11b5f5260045260245ffd5b63042784cf60e31b5f5260045260245ffd5b6040833603126101895760405190610ec682611630565b8335906001600160a01b038216820361018957826020926040945282860135838201528152019201916108e0565b6335fdcccd60e21b5f523360045260245ffd5b3461018957610f1536611593565b600654909392906001600160a01b031633036106aa576001600160401b0386165f908152600a60205260409020546001600160a01b031692831561068857600b54610f6b966001600160a01b039091169461189d565b60405163b0f479a160e01b815290602082600481305afa80156104b457610fb3936020935f9261100b575b506040518095819482936320487ded60e01b845260048401611728565b03916001600160a01b03165afa80156104b4575f90610fd8575b602090604051908152f35b506020813d602011611003575b81610ff260209383611666565b810103126101895760209051610fcd565b3d9150610fe5565b611023919250843d8611610681576106738183611666565b9085610f96565b34610189576020366003190112610189576001600160401b0361104b611551565b165f526007602052602060ff60405f2054166040519015158152f35b34610189575f3660031901126101895761107f61186a565b5f80546001600160a01b0319811682556001600160a01b03167f8be0079c531659141344cd1fd0a4f28419497f9722a3daafe3b4186f6b6457e08280a3005b34610189576020366003190112610189576001600160a01b036110df611567565b165f526009602052602060ff60405f2054166040519015158152f35b3461018957602036600319011261018957611114611567565b61111c61186a565b4790811561115d575f80808085855af16111346116da565b501561113c57005b639d11f56360e01b5f523360045260018060a01b031660245260445260645ffd5b630686827b60e51b5f5260045ffd5b34610189576020366003190112610189576001600160401b0361118d611551565b165f526008602052602060ff60405f2054166040519015158152f35b34610189576040366003190112610189576111c2611567565b6111ca61157d565b6111d261186a565b6040516370a0823160e01b8152306004820152906001600160a01b0316602082602481845afa9182156104b4575f9261131c575b50811561115d5760405163a9059cbb60e01b602082019081526001600160a01b0394909416602482015260448082019390935291825261129c925f90819061124f606486611666565b6040519461125e604087611666565b602086527f5361666545524332303a206c6f772d6c6576656c2063616c6c206661696c65646020870152519082855af16112966116da565b91611af6565b8051806112a557005b81602091810103126101895760206112bd910161185d565b156112c457005b60405162461bcd60e51b815260206004820152602a60248201527f5361666545524332303a204552433230206f7065726174696f6e20646964206e6044820152691bdd081cdd58d8d9595960b21b6064820152608490fd5b9091506020813d602011611348575b8161133860209383611666565b8101031261018957519083611206565b3d915061132b565b34610189576020366003190112610189576001600160401b03611371611551565b165f52600a602052602060018060a01b0360405f205416604051908152f35b34610189575f36600319011261018957606060206040516113b081611630565b5f8152015260015460025460035460405192916001600160a01b0316906113d684611630565b60ff60045416151584526040515f6005546113f081611687565b80845290600181169081156114b65750600114611458575b509061141981611449930382611666565b60208601908152604051958695865260806020870152511515608086015251604060a086015260c085019061152d565b91604084015260608301520390f35b60055f9081527f036b6384b5eca791c62761152d0c79bb0604c104a5fb6f4eb0703f3154bb3db0939250905b80821061149c57509091508101602001611419611408565b919260018160209254838588010152019101909291611484565b60ff191660208086019190915291151560051b840190910191506114199050611408565b34610189576020366003190112610189576004359063ffffffff60e01b8216809203610189576020916385572ffb60e01b811490811561151c575b5015158152f35b6301ffc9a760e01b14905083611515565b805180835260209291819084018484015e5f828201840152601f01601f1916010190565b600435906001600160401b038216820361018957565b600435906001600160a01b038216820361018957565b602435906001600160a01b038216820361018957565b60a0600319820112610189576004356001600160401b038116810361018957916024356001600160401b0381116101895782602382011215610189578060040135926001600160401b03841161018957602484830101116101895760240191906044356001600160a01b03811681036101895790606435906084356001600160401b03811681036101895790565b60243590811515820361018957565b604081019081106001600160401b03821117610e7757604052565b60a081019081106001600160401b03821117610e7757604052565b90601f801991011681019081106001600160401b03821117610e7757604052565b90600182811c921680156116b5575b60208310146116a157565b634e487b7160e01b5f52602260045260245ffd5b91607f1691611696565b6001600160401b038111610e7757601f01601f191660200190565b3d15611704573d906116eb826116bf565b916116f96040519384611666565b82523d5f602084013e565b606090565b9081602091031261018957516001600160a01b03811681036101895790565b906001600160401b03909392931681526040602082015261176e611758845160a0604085015260e084019061152d565b6020850151838203603f1901606085015261152d565b90604084015191603f19828203016080830152602080845192838152019301905f5b8181106117ca5750505060806117c7939460018060a01b0360608201511660a084015201519060c0603f198285030191015261152d565b90565b825180516001600160a01b031686526020908101518187015260409095019490920191600101611790565b929192611801826116bf565b9161180f6040519384611666565b829481845281830111610189578281602093845f960137010152565b9080601f83011215610189578160206117c7933591016117f5565b6001600160401b038111610e775760051b60200190565b5190811515820361018957565b5f546001600160a01b0316330361187d57565b63118cdaa760e01b5f523360045260245ffd5b805115610cd25760200190565b959493909192606060806040516118b38161164b565b82815260208101839052604081018390525f8184015201526001600160a01b0316806119c65750506040516118e9602082611666565b5f81525f805b8181106119a35750509061198391925b6040519660018060a01b031660208801526020875261191f604088611666565b6001600160401b036040519661193488611630565b168652602086016001815260405196630181dcf160e41b602089015251602488015251151560448701526044865261196d606487611666565b6040519661197a8861164b565b875236916117f5565b602085015260408401526001600160a01b03166060830152608082015290565b6020906040516119b281611630565b5f81525f83820152828286010152016118ef565b9092906040805191906119d98184611666565b60018352601f19015f5b818110611a2157505081611a1b916119839594939660405191611a0583611630565b82526020820152611a1582611890565b52611890565b506118ff565b602090604051611a3081611630565b5f81525f83820152828287010152016119e3565b81601f8201121561018957805190611a5b826116bf565b92611a696040519485611666565b8284526020838301011161018957815f9260208093018386015e8301015290565b91906040838203126101895760405190611aa382611630565b8193805183526020810151916001600160401b03831161018957602092611aca9201611a44565b910152565b906001600160401b03611aef60209295949560408552604085019061152d565b9416910152565b91929015611b585750815115611b0a575090565b3b15611b135790565b60405162461bcd60e51b815260206004820152601d60248201527f416464726573733a2063616c6c20746f206e6f6e2d636f6e74726163740000006044820152606490fd5b825190915015611b6b5750805190602001fd5b60405162461bcd60e51b815260206004820152908190611b8f90602483019061152d565b0390fdfea2646970667358221220162734eda15cbd55bfb3dc1e1bf1c3fb3b232f3c203a2ea87a3243fcdb84092064736f6c634300081c0033",
  "linkReferences": {},
  "deployedLinkReferences": {},
  "immutableReferences": {
    "1105": [
      {
        "length": 32,
        "start": 1742
      },
      {
        "length": 32,
        "start": 2000
      }
    ]
  },
  "inputSourceName": "contracts/protocol/BondBridge.sol",
  "buildInfoId": "71436b471a1d93547b79bc079827a9fdfb513df7"
}