{
  "_format": "hh3-artifact-1",
  "contractName": "LPTokenFactory",
  "sourceName": "contracts/factory/LPTokenFactory.sol",
  "abi": [
    {
      "inputs": [
        {
          "internalType": "address",
          "name": "_initialOwner",
          "type": "address"
        }
      ],
      "stateMutability": "nonpayable",
      "type": "constructor"
    },
    {
      "inputs": [
        {
          "internalType": "address",
          "name": "owner",
          "type": "address"
        }
      ],
      "name": "OwnableInvalidOwner",
      "type": "error"
    },
    {
      "inputs": [
        {
          "internalType": "address",
          "name": "account",
          "type": "address"
        }
      ],
      "name": "OwnableUnauthorizedAccount",
      "type": "error"
    },
    {
      "anonymous": false,
      "inputs": [
        {
          "indexed": true,
          "internalType": "address",
          "name": "previousOwner",
          "type": "address"
        },
        {
          "indexed": true,
          "internalType": "address",
          "name": "newOwner",
          "type": "address"
        }
      ],
      "name": "OwnershipTransferred",
      "type": "event"
    },
    {
      "inputs": [
        {
          "internalType": "uint64",
          "name": "_poolId",
          "type": "uint64"
        },
        {
          "internalType": "string",
          "name": "_name",
          "type": "string"
        },
        {
          "internalType": "string",
          "name": "_symbol",
          "type": "string"
        }
      ],
      "name": "createSupplyToken",
      "outputs": [
        {
          "internalType": "address",
          "name": "tokenAddress",
          "type": "address"
        }
      ],
      "stateMutability": "nonpayable",
      "type": "function"
    },
    {
      "inputs": [
        {
          "internalType": "uint64",
          "name": "poolId",
          "type": "uint64"
        }
      ],
      "name": "getToken",
      "outputs": [
        {
          "internalType": "contract LPTokenERC20",
          "name": "",
          "type": "address"
        }
      ],
      "stateMutability": "view",
      "type": "function"
    },
    {
      "inputs": [
        {
          "internalType": "address",
          "name": "_pool",
          "type": "address"
        }
      ],
      "name": "initializePool",
      "outputs": [],
      "stateMutability": "nonpayable",
      "type": "function"
    },
    {
      "inputs": [],
      "name": "owner",
      "outputs": [
        {
          "internalType": "address",
          "name": "",
          "type": "address"
        }
      ],
      "stateMutability": "view",
      "type": "function"
    },
    {
      "inputs": [],
      "name": "pool",
      "outputs": [
        {
          "internalType": "address",
          "name": "",
          "type": "address"
        }
      ],
      "stateMutability": "view",
      "type": "function"
    },
    {
      "inputs": [],
      "name": "renounceOwnership",
      "outputs": [],
      "stateMutability": "nonpayable",
      "type": "function"
    },
    {
      "inputs": [
        {
          "internalType": "uint256",
          "name": "",
          "type": "uint256"
        }
      ],
      "name": "tokens",
      "outputs": [
        {
          "internalType": "address",
          "name": "",
          "type": "address"
        }
      ],
      "stateMutability": "view",
      "type": "function"
    },
    {
      "inputs": [
        {
          "internalType": "address",
          "name": "newOwner",
          "type": "address"
        }
      ],
      "name": "transferOwnership",
      "outputs": [],
      "stateMutability": "nonpayable",
      "type": "function"
    }
  ],
  "bytecode": "0x60803460b857601f61227638819003918201601f19168301916001600160401b0383118484101760bc5780849260209460405283398101031260b857516001600160a01b0381169081900360b857801560a5575f80546001600160a01b031981168317825560405192916001600160a01b03909116907f8be0079c531659141344cd1fd0a4f28419497f9722a3daafe3b4186f6b6457e09080a36121a590816100d18239f35b631e4fbdf760e01b5f525f60045260245ffd5b5f80fd5b634e487b7160e01b5f52604160045260245ffdfe6080806040526004361015610012575f80fd5b5f3560e01c90816316f0115b1461045357508063407431f7146104095780634f64b2be146103c7578063715018a6146103705780637b9a4a14146101695780638da5cb5b14610142578063a3596420146101015763f2fde38b14610074575f80fd5b346100fd5760203660031901126100fd576004356001600160a01b038116908190036100fd576100a2610545565b80156100ea575f80546001600160a01b03198116831782556001600160a01b0316907f8be0079c531659141344cd1fd0a4f28419497f9722a3daafe3b4186f6b6457e09080a3005b631e4fbdf760e01b5f525f60045260245ffd5b5f80fd5b346100fd5760203660031901126100fd5767ffffffffffffffff6101236104a2565b165f526002602052602060018060a01b0360405f205416604051908152f35b346100fd575f3660031901126100fd575f546040516001600160a01b039091168152602090f35b346100fd5760603660031901126100fd576101826104a2565b60243567ffffffffffffffff81116100fd576101a29036906004016104b9565b9060443567ffffffffffffffff81116100fd576101c39036906004016104b9565b6001546001600160a01b031691338390036103185782156102dc5760405192611c04928385019185831067ffffffffffffffff8411176102bd5767ffffffffffffffff61023e9461023092889761056c893985521696876020850152608060408501526080840190610521565b916060818403910152610521565b03905ff09081156102d1575f90815260026020526040902080546001600160a01b0319166001600160a01b03909216918217905560035490680100000000000000008210156102bd5761029982600160209401600355610476565b81546001600160a01b0360039290921b91821b19169083901b179055604051908152f35b634e487b7160e01b5f52604160045260245ffd5b6040513d5f823e3d90fd5b60405162461bcd60e51b81526020600482015260146024820152731c1bdbdb081b9bdd081a5b9a5d1a585b1a5e995960621b6044820152606490fd5b60405162461bcd60e51b815260206004820152602a60248201527f4f6e6c7920706f6f6c20697320616c6c6f77656420746f2063616c6c207468696044820152693990333ab731ba34b7b760b11b6064820152608490fd5b346100fd575f3660031901126100fd57610388610545565b5f80546001600160a01b0319811682556001600160a01b03167f8be0079c531659141344cd1fd0a4f28419497f9722a3daafe3b4186f6b6457e08280a3005b346100fd5760203660031901126100fd576004356003548110156100fd576103f0602091610476565b905460405160039290921b1c6001600160a01b03168152f35b346100fd5760203660031901126100fd576004356001600160a01b038116908190036100fd57610437610545565b6bffffffffffffffffffffffff60a01b60015416176001555f80f35b346100fd575f3660031901126100fd576001546001600160a01b03168152602090f35b60035481101561048e5760035f5260205f2001905f90565b634e487b7160e01b5f52603260045260245ffd5b6004359067ffffffffffffffff821682036100fd57565b81601f820112156100fd5780359067ffffffffffffffff82116102bd5760405192601f8301601f19908116603f0116840167ffffffffffffffff8111858210176102bd57604052828452602083830101116100fd57815f926020809301838601378301015290565b805180835260209291819084018484015e5f828201840152601f01601f1916010190565b5f546001600160a01b0316330361055857565b63118cdaa760e01b5f523360045260245ffdfe610180806040523461048a57611c04803803809161001d828561048e565b833981019060808183031261048a5780516001600160a01b0381169081900361048a5760208201516001600160401b038116929083900361048a5760408101516001600160401b03811161048a57846100779183016104b1565b60608201519094906001600160401b03811161048a5761009792016104b1565b6040938451916100a7868461048e565b60018352603160f81b60208401908152825190926001600160401b03821161038d5760035490600182811c92168015610480575b602083101461036f5781601f849311610412575b50602090601f83116001146103ac575f926103a1575b50508160011b915f199060031b1c1916176003555b80516001600160401b03811161038d57600454600181811c91168015610383575b602082101461036f57601f811161030c575b50806020601f82116001146102a8575f9161029d575b508160011b915f199060031b1c1916176004555b61018081610506565b6101205261018d8361068d565b6101405260208151910120918260e05251902080610100524660a05284519060208201927f8b73c3c69bb8fe3d512ecc4cf759cc79239f7b179b0ffacaa9a75d522b39400f84528683015260608201524660808201523060a082015260a081526101f860c08261048e565b5190206080523060c05261016052600880546001600160401b0319169190911790555161143e90816107c682396080518161104f015260a0518161110c015260c05181611019015260e0518161109e015261010051816110c4015261012051816106220152610140518161064c0152610160518181816103080152818161045e01528181610798015281816108c6015281816109d501528181610bf00152610f5d0152f35b90508201515f610163565b60045f9081528181209250601f198416905b8181106102f4575090836001949392106102dc575b5050811b01600455610177565b8401515f1960f88460031b161c191690555f806102cf565b919260206001819286890151815501940192016102ba565b60045f527f8a35acfbc15ff81a39ae7d344fd709f28e8600b4aa8c65c6b64bfe7fe36bd19b601f830160051c81019160208410610365575b601f0160051c01905b81811061035a575061014d565b5f815560010161034d565b9091508190610344565b634e487b7160e01b5f52602260045260245ffd5b90607f169061013b565b634e487b7160e01b5f52604160045260245ffd5b015190505f80610105565b60035f9081528281209350601f198516905b8181106103fa57509084600195949392106103e2575b505050811b0160035561011a565b01515f1960f88460031b161c191690555f80806103d4565b929360206001819287860151815501950193016103be565b60035f529091507fc2575a0e9e593c00f959f8c92f12db2869c3395a3b0502d05e2516446f71f85b601f840160051c81019160208510610476575b90601f859493920160051c01905b81811061046857506100ef565b5f815584935060010161045b565b909150819061044d565b91607f16916100db565b5f80fd5b601f909101601f19168101906001600160401b0382119082101761038d57604052565b81601f8201121561048a578051906001600160401b03821161038d57604051926104e5601f8401601f19166020018561048e565b8284526020838301011161048a57815f9260208093018386015e8301015290565b908151602081105f14610580575090601f815111610540576020815191015160208210610531571790565b5f198260200360031b1b161790565b604460209160405192839163305a27a960e01b83528160048401528051918291826024860152018484015e5f828201840152601f01601f19168101030190fd5b6001600160401b03811161038d57600554600181811c91168015610683575b602082101461036f57601f8111610650575b50602092601f82116001146105ef57928192935f926105e4575b50508160011b915f199060031b1c19161760055560ff90565b015190505f806105cb565b601f1982169360055f52805f20915f5b8681106106385750836001959610610620575b505050811b0160055560ff90565b01515f1960f88460031b161c191690555f8080610612565b919260206001819286850151815501940192016105ff565b60055f52601f60205f20910160051c810190601f830160051c015b81811061067857506105b1565b5f815560010161066b565b90607f169061059f565b908151602081105f146106b8575090601f815111610540576020815191015160208210610531571790565b6001600160401b03811161038d57600654600181811c911680156107bb575b602082101461036f57601f8111610788575b50602092601f821160011461072757928192935f9261071c575b50508160011b915f199060031b1c19161760065560ff90565b015190505f80610703565b601f1982169360065f52805f20915f5b8681106107705750836001959610610758575b505050811b0160065560ff90565b01515f1960f88460031b161c191690555f808061074a565b91926020600181928685015181550194019201610737565b60065f52601f60205f20910160051c810190601f830160051c015b8181106107b057506106e9565b5f81556001016107a3565b90607f16906106d756fe6080806040526004361015610012575f80fd5b5f905f3560e01c90816306fdde0314610c5057508063095ea7b314610c1f57806316f0115b14610bdb57806318160ddd14610bb157806323b872dd146109a8578063313ce567146101295780633644e5151461098d5780633e0dc34e1461096657806340c10f19146108a257806370a082311461073d5780637ecebe001461070457806384b0196e1461060857806395d89b41146105215780639dc29fac14610439578063a9059cbb146102e7578063d505accf14610198578063dd62ed3e14610145578063f0141d84146101295763f552dbd7146100ef575f80fd5b34610126576020366003190112610126576020906040906001600160a01b03610116610d3b565b1681528083522054604051908152f35b80fd5b5034610126578060031936011261012657602060405160128152f35b5034610126576040366003190112610126576040610161610d3b565b9161016a610d51565b9260018060a01b031681526001602052209060018060a01b03165f52602052602060405f2054604051908152f35b50346101265760e0366003190112610126576101b2610d3b565b906101bb610d51565b604435906064359360843560ff811681036102e3578542116102cf5761028f6102989160018060a01b03841697888852600760205260408820908154916001830190556040519060208201927f6e71edae12b1b97f4d1f60370fef10105fa2faae0126114a169c64845d6126c984528b604084015260018060a01b038916606084015289608084015260a083015260c082015260c0815261025d60e082610e4f565b519020610268611016565b906040519161190160f01b83526002830152602282015260c43591604260a4359220611312565b90929192611394565b6001600160a01b0316948086036102b857506102b5939450611132565b80f35b6325c0072360e11b85526004869052602452604484fd5b63313c898160e11b85526004869052602485fd5b8480fd5b503461012657604036600319011261012657610301610d3b565b60085482907f00000000000000000000000000000000000000000000000000000000000000006001600160a01b0316906001600160401b0316813b156104155760405163ee6a0bef60e01b81523360048201526001600160401b03919091166024820152828160448183865af190811561042e578391610419575b50506001600160401b036008541690803b156104155760405163ee6a0bef60e01b81526001600160a01b03851660048201526001600160401b0392909216602483015282908290604490829084905af1801561040a576103f1575b506103e560243583336111bb565b50602060405160018152f35b816103fb91610e4f565b61040657815f6103d7565b5080fd5b6040513d84823e3d90fd5b8280fd5b8161042391610e4f565b61040657815f61037c565b6040513d85823e3d90fd5b503461012657604036600319011261012657610453610d3b565b602435919061048c337f00000000000000000000000000000000000000000000000000000000000000006001600160a01b031614610e91565b6001600160a01b031691821561050d578282528160205260408220548181106104f55760208285937fddf252ad1be2c89b69c2b068fc378daa952ba7f163c4a11628f55a4df523b3ef93869787528684520360408620558060025403600255604051908152a380f35b60649363391434e360e21b8452600452602452604452fd5b634b637e8f60e11b82526004829052602482fd5b503461012657806003193601126101265760405190806004549061054482610d67565b80855291600181169081156105e15750600114610584575b6105808461056c81860382610e4f565b604051918291602083526020830190610d17565b0390f35b600481527f8a35acfbc15ff81a39ae7d344fd709f28e8600b4aa8c65c6b64bfe7fe36bd19b939250905b8082106105c75750909150810160200161056c8261055c565b9192600181602092548385880101520191019092916105ae565b60ff191660208087019190915292151560051b8501909201925061056c915083905061055c565b50346101265780600319360112610126576106a8906106467f0000000000000000000000000000000000000000000000000000000000000000611278565b906106707f00000000000000000000000000000000000000000000000000000000000000006112db565b9060206106b6604051936106848386610e4f565b8385525f368137604051968796600f60f81b885260e08589015260e0880190610d17565b908682036040880152610d17565b904660608601523060808601528260a086015284820360c08601528080855193848152019401925b8281106106ed57505050500390f35b8351855286955093810193928101926001016106de565b5034610126576020366003190112610126576020906040906001600160a01b0361072c610d3b565b168152600783522054604051908152f35b5034610126576020366003190112610126576001600160a01b0361075f610d3b565b16808252816020526040822054916080610777610f0a565b015160405160016236769560e01b03198152600481018490526020816024817f00000000000000000000000000000000000000000000000000000000000000006001600160a01b03165afa90811561042e57839161083d575b505180820393828511610829578352826020526040832054808502948504149114171561081557602061080d670de0b6b3a7640000840485610e70565b604051908152f35b634e487b7160e01b81526011600452602490fd5b634e487b7160e01b84526011600452602484fd5b90506020813d60201161089a575b8161085860209383610e4f565b810103126104155760405190602082018281106001600160401b03821117610886576040525181525f6107d0565b634e487b7160e01b85526041600452602485fd5b3d915061084b565b5034610126576040366003190112610126576108bc610d3b565b602435906108f4337f00000000000000000000000000000000000000000000000000000000000000006001600160a01b031614610e91565b6001600160a01b0316908115610952577fddf252ad1be2c89b69c2b068fc378daa952ba7f163c4a11628f55a4df523b3ef6020826109358694600254610e70565b60025584845283825260408420818154019055604051908152a380f35b63ec442f0560e01b83526004839052602483fd5b503461012657806003193601126101265760206001600160401b0360085416604051908152f35b5034610126578060031936011261012657602061080d611016565b5034610bad576060366003190112610bad576109c2610d3b565b906109cb610d51565b60085460443591907f00000000000000000000000000000000000000000000000000000000000000006001600160a01b0316906001600160401b0316813b15610bad5760405163ee6a0bef60e01b81526001600160a01b03871660048201526001600160401b039190911660248201525f8160448183865af18015610ba257610b8d575b506001600160401b0360085416813b156102e35760405163ee6a0bef60e01b81526001600160a01b03841660048201526001600160401b039190911660248201529084908290604490829084905af18015610b8257908491610b6d575b50506001600160a01b038416808452600160209081526040808620335f90815292529020549094905f198110610ae9575b506103e59394506111bb565b838110610b52578515610b3e573315610b2a5784956103e5955260016020526040862060018060a01b0333165f526020528360405f20910390558493610add565b634a1406b160e11b85526004859052602485fd5b63e602df0560e01b85526004859052602485fd5b637dc7a0d960e11b8552336004526024526044839052606484fd5b81610b7791610e4f565b61041557825f610aac565b6040513d86823e3d90fd5b610b9a9194505f90610e4f565b5f925f610a4f565b6040513d5f823e3d90fd5b5f80fd5b34610bad575f366003190112610bad57602061080d6002546060610bd3610f0a565b015190610e70565b34610bad575f366003190112610bad576040517f00000000000000000000000000000000000000000000000000000000000000006001600160a01b03168152602090f35b34610bad576040366003190112610bad57610c45610c3b610d3b565b6024359033611132565b602060405160018152f35b34610bad575f366003190112610bad575f600354610c6d81610d67565b8084529060018116908115610cf35750600114610c95575b6105808361056c81850382610e4f565b60035f9081527fc2575a0e9e593c00f959f8c92f12db2869c3395a3b0502d05e2516446f71f85b939250905b808210610cd95750909150810160200161056c610c85565b919260018160209254838588010152019101909291610cc1565b60ff191660208086019190915291151560051b8401909101915061056c9050610c85565b805180835260209291819084018484015e5f828201840152601f01601f1916010190565b600435906001600160a01b0382168203610bad57565b602435906001600160a01b0382168203610bad57565b90600182811c92168015610d95575b6020831014610d8157565b634e487b7160e01b5f52602260045260245ffd5b91607f1691610d76565b5f9291815491610dae83610d67565b8083529260018116908115610e035750600114610dca57505050565b5f9081526020812093945091925b838310610de9575060209250010190565b600181602092949394548385870101520191019190610dd8565b915050602093945060ff929192191683830152151560051b010190565b60a081019081106001600160401b03821117610e3b57604052565b634e487b7160e01b5f52604160045260245ffd5b90601f801991011681019081106001600160401b03821117610e3b57604052565b91908201809211610e7d57565b634e487b7160e01b5f52601160045260245ffd5b15610e9857565b60405162461bcd60e51b815260206004820152603060248201527f556e617574686f72697a65643a204f6e6c7920706f6f6c2063616e206163636560448201526f39b9903a3434b990333ab731ba34b7b760811b6064820152608490fd5b51906001600160a01b0382168203610bad57565b5f6080604051610f1981610e20565b82815282602082015282604082015282606082015201526001600160401b0360085416604051906312335b5760e31b8252600482015260a081602481600180851b037f0000000000000000000000000000000000000000000000000000000000000000165afa908115610ba2575f91610f90575090565b905060a0813d60a01161100e575b81610fab60a09383610e4f565b81010312610bad5760405190610fc082610e20565b8051906001600160401b0382168203610bad576080918352610fe460208201610ef6565b6020840152610ff560408201610ef6565b6040840152606081015160608401520151608082015290565b3d9150610f9e565b307f00000000000000000000000000000000000000000000000000000000000000006001600160a01b03161480611109575b15611071577f000000000000000000000000000000000000000000000000000000000000000090565b60405160208101907f8b73c3c69bb8fe3d512ecc4cf759cc79239f7b179b0ffacaa9a75d522b39400f82527f000000000000000000000000000000000000000000000000000000000000000060408201527f000000000000000000000000000000000000000000000000000000000000000060608201524660808201523060a082015260a0815261110360c082610e4f565b51902090565b507f00000000000000000000000000000000000000000000000000000000000000004614611048565b6001600160a01b03169081156111a8576001600160a01b03169182156111955760207f8c5be1e5ebec7d5bd14f71427d1e84f3dd0314c0f7b2291e5b200ac8c7c3b92591835f526001825260405f20855f5282528060405f2055604051908152a3565b634a1406b160e11b5f525f60045260245ffd5b63e602df0560e01b5f525f60045260245ffd5b6001600160a01b0316908115611265576001600160a01b031691821561125257815f525f60205260405f205481811061123957817fddf252ad1be2c89b69c2b068fc378daa952ba7f163c4a11628f55a4df523b3ef92602092855f525f84520360405f2055845f525f825260405f20818154019055604051908152a3565b8263391434e360e21b5f5260045260245260445260645ffd5b63ec442f0560e01b5f525f60045260245ffd5b634b637e8f60e11b5f525f60045260245ffd5b60ff81146112be5760ff811690601f82116112af576040519161129c604084610e4f565b6020808452838101919036833783525290565b632cd44ac360e21b5f5260045ffd5b506040516112d8816112d1816005610d9f565b0382610e4f565b90565b60ff81146112ff5760ff811690601f82116112af576040519161129c604084610e4f565b506040516112d8816112d1816006610d9f565b91907f7fffffffffffffffffffffffffffffff5d576e7357a4501ddfe92f46681b20a08411611389579160209360809260ff5f9560405194855216868401526040830152606082015282805260015afa15610ba2575f516001600160a01b0381161561137f57905f905f90565b505f906001905f90565b5050505f9160039190565b60048110156113f457806113a6575050565b600181036113bd5763f645eedf60e01b5f5260045ffd5b600281036113d8575063fce698f760e01b5f5260045260245ffd5b6003146113e25750565b6335e2f38360e21b5f5260045260245ffd5b634e487b7160e01b5f52602160045260245ffdfea2646970667358221220614a78e46b6d3f5f283045065b80fac43a12be39642fbfdaed8341ef8cf936b264736f6c634300081c0033a2646970667358221220ff88653de94092c9de03433aca0a6d0011cddd77a349838dfd7a72ad7bf89a4c64736f6c634300081c0033",
  "linkReferences": {},
  "deployedLinkReferences": {},
  "immutableReferences": {},
  "inputSourceName": "contracts/factory/LPTokenFactory.sol",
  "buildInfoId": "f5bd04fb37ab22bd5b6e12d67b96e7d32ed0d812"
}