{
  "_format": "hh3-artifact-1",
  "contractName": "ImplementationDeployer",
  "sourceName": "contracts/factory/ImplementationDeployer.sol",
  "abi": [
    {
      "inputs": [],
      "name": "Create2EmptyBytecode",
      "type": "error"
    },
    {
      "inputs": [],
      "name": "FailedDeployment",
      "type": "error"
    },
    {
      "inputs": [
        {
          "internalType": "uint256",
          "name": "balance",
          "type": "uint256"
        },
        {
          "internalType": "uint256",
          "name": "needed",
          "type": "uint256"
        }
      ],
      "name": "InsufficientBalance",
      "type": "error"
    },
    {
      "anonymous": false,
      "inputs": [
        {
          "indexed": true,
          "internalType": "address",
          "name": "factory",
          "type": "address"
        },
        {
          "indexed": true,
          "internalType": "address",
          "name": "implementation",
          "type": "address"
        },
        {
          "indexed": false,
          "internalType": "address",
          "name": "protocol",
          "type": "address"
        },
        {
          "indexed": false,
          "internalType": "bytes32",
          "name": "salt",
          "type": "bytes32"
        }
      ],
      "name": "FactoryDeployed",
      "type": "event"
    },
    {
      "anonymous": false,
      "inputs": [
        {
          "indexed": true,
          "internalType": "address",
          "name": "implementation",
          "type": "address"
        },
        {
          "indexed": true,
          "internalType": "address",
          "name": "entryPoint",
          "type": "address"
        },
        {
          "indexed": false,
          "internalType": "address",
          "name": "protocol",
          "type": "address"
        },
        {
          "indexed": false,
          "internalType": "bytes32",
          "name": "salt",
          "type": "bytes32"
        }
      ],
      "name": "ImplementationDeployed",
      "type": "event"
    },
    {
      "inputs": [
        {
          "internalType": "address",
          "name": "entryPoint",
          "type": "address"
        },
        {
          "internalType": "address",
          "name": "protocol",
          "type": "address"
        },
        {
          "internalType": "bytes32",
          "name": "implementationSalt",
          "type": "bytes32"
        },
        {
          "internalType": "bytes32",
          "name": "factorySalt",
          "type": "bytes32"
        }
      ],
      "name": "deployAll",
      "outputs": [
        {
          "internalType": "address",
          "name": "implementation",
          "type": "address"
        },
        {
          "internalType": "address",
          "name": "factory",
          "type": "address"
        }
      ],
      "stateMutability": "nonpayable",
      "type": "function"
    },
    {
      "inputs": [
        {
          "internalType": "address",
          "name": "implementation",
          "type": "address"
        },
        {
          "internalType": "address",
          "name": "entryPoint",
          "type": "address"
        },
        {
          "internalType": "address",
          "name": "protocol",
          "type": "address"
        },
        {
          "internalType": "bytes32",
          "name": "salt",
          "type": "bytes32"
        }
      ],
      "name": "deployFactory",
      "outputs": [
        {
          "internalType": "address",
          "name": "",
          "type": "address"
        }
      ],
      "stateMutability": "nonpayable",
      "type": "function"
    },
    {
      "inputs": [
        {
          "internalType": "address",
          "name": "entryPoint",
          "type": "address"
        },
        {
          "internalType": "address",
          "name": "protocol",
          "type": "address"
        },
        {
          "internalType": "bytes32",
          "name": "salt",
          "type": "bytes32"
        }
      ],
      "name": "deployImplementation",
      "outputs": [
        {
          "internalType": "address",
          "name": "",
          "type": "address"
        }
      ],
      "stateMutability": "nonpayable",
      "type": "function"
    },
    {
      "inputs": [
        {
          "internalType": "address",
          "name": "implementation",
          "type": "address"
        },
        {
          "internalType": "address",
          "name": "entryPoint",
          "type": "address"
        },
        {
          "internalType": "address",
          "name": "protocol",
          "type": "address"
        },
        {
          "internalType": "bytes32",
          "name": "salt",
          "type": "bytes32"
        }
      ],
      "name": "getFactoryAddress",
      "outputs": [
        {
          "internalType": "address",
          "name": "",
          "type": "address"
        }
      ],
      "stateMutability": "view",
      "type": "function"
    },
    {
      "inputs": [
        {
          "internalType": "address",
          "name": "entryPoint",
          "type": "address"
        },
        {
          "internalType": "address",
          "name": "protocol",
          "type": "address"
        },
        {
          "internalType": "bytes32",
          "name": "salt",
          "type": "bytes32"
        }
      ],
      "name": "getImplementationAddress",
      "outputs": [
        {
          "internalType": "address",
          "name": "",
          "type": "address"
        }
      ],
      "stateMutability": "view",
      "type": "function"
    }
  ],
  "bytecode": "0x60808060405234601557612d71908161001a8239f35b5f80fdfe60806040526004361015610011575f80fd5b5f3560e01c8063603a05ee1461012457806370103b591461010b57806388382981146100ef578063a8a3d5f8146100c45763c57ed41314610050575f80fd5b346100c05760803660031901126100c0576004356001600160a01b03811681036100c057602435906001600160a01b03821682036100c0576100a49061009960443584836104d3565b926064359184610296565b604080516001600160a01b039384168152919092166020820152f35b5f80fd5b346100c05760206100dd6100d73661018e565b916104d3565b6040516001600160a01b039091168152f35b346100c05760206100dd61010236610140565b92919091610473565b346100c05760206100dd61011e3661018e565b916103cf565b346100c05760206100dd61013736610140565b92919091610296565b60809060031901126100c0576004356001600160a01b03811681036100c057906024356001600160a01b03811681036100c057906044356001600160a01b03811681036100c0579060643590565b60609060031901126100c0576004356001600160a01b03811681036100c057906024356001600160a01b03811681036100c0579060443590565b156101cf57565b60405162461bcd60e51b815260206004820152601a60248201527f496e76616c696420656e747279506f696e7420616464726573730000000000006044820152606490fd5b1561021b57565b60405162461bcd60e51b815260206004820152601860248201527f496e76616c69642070726f746f636f6c206164647265737300000000000000006044820152606490fd5b90601f8019910116810190811067ffffffffffffffff82111761028257604052565b634e487b7160e01b5f52604160045260245ffd5b9291906102ad6001600160a01b03821615156101c8565b6102c16001600160a01b0383161515610214565b6102cd83838387610473565b803b6103c757506103c16103977fa13ebedd3b1296aea8734d5224e62fdeaeb1d7d9888cc8bff3edcc1813a3ea5c926103916109c191602089886103626040519461031a85890187610260565b878652848601976106348939604080516001600160a01b039586168782019081529286166020840152939094169381019390935281606084015b03601f198101835282610260565b6040519586945180918587015e840190838201905f8252519283915e01015f815203601f198101835282610260565b856105b5565b604080516001600160a01b0395861681526020810196909652909584169493861693918291820190565b0390a390565b935050505090565b9061042761046661047094936020611d4791610435604051966103f484860189610260565b84885283880194610ff58639604080516001600160a01b0394851686820190815294909216602085015290968791840190565b03601f198101875286610260565b60405194859383850197518091895e840190838201905f8252519283915e01015f815203601f198101835282610260565b519020309161060a565b90565b91610466610470949360206109c1916104356040519661049584860189610260565b848852838801946106348639604080516001600160a01b03948516868201908152928516602084015297909316928101929092528560608301610427565b6001600160a01b03811691906104ea8315156101c8565b6104fe6001600160a01b0383161515610214565b6105098483836103cf565b803b6103c757506103c161058e7f4a770ced959ac3fd4a120184267b3938b7b117087201850872ab5af6324b6ac892610588611d479160206040519161055182860184610260565b84835281830194610ff58639604080516001600160a01b03928316848201908152928b166020840152906103629082908401610354565b866105b5565b604080516001600160a01b0395861681526020810197909752909593861693918291820190565b908051156105fb576020815191015ff5903d15198215166105f0576001600160a01b038216156105e157565b63b06ebf3d60e01b5f5260045ffd5b6040513d5f823e3d90fd5b631328927760e21b5f5260045ffd5b91600b92604051926040840152602083015281520160ff8153605590206001600160a01b03169056fe60c0346101fb57601f6109c138819003918201601f19168301916001600160401b038311848410176101ff578084926060946040528339810103126101fb5761004781610213565b90610060604061005960208401610213565b9201610213565b6001600160a01b038316156101b657823b15610167576001600160a01b03821615610122576001600160a01b03169182156100dd5760805260a0525f80546001600160a01b0319169190911790556040516107999081610228823960805181818161016f015281816102d601526103dc015260a051816101b30152f35b60405162461bcd60e51b815260206004820152601860248201527f496e76616c69642070726f746f636f6c206164647265737300000000000000006044820152606490fd5b60405162461bcd60e51b815260206004820152601a60248201527f496e76616c696420656e747279506f696e7420616464726573730000000000006044820152606490fd5b60405162461bcd60e51b815260206004820152602160248201527f496d706c656d656e746174696f6e206d757374206265206120636f6e747261636044820152601d60fa1b6064820152608490fd5b60405162461bcd60e51b815260206004820152601e60248201527f496e76616c696420696d706c656d656e746174696f6e206164647265737300006044820152606490fd5b5f80fd5b634e487b7160e01b5f52604160045260245ffd5b51906001600160a01b03821682036101fb5756fe60806040526004361015610011575f80fd5b5f3560e01c806344ab613f1461019e5780635c60da1b1461015a5780638ce74426146100d557806399703adf14610101578063b0d691fe146100fc578063d16352af146100d5578063dbfb8cc0146100ae5763f14ddffc14610071575f80fd5b346100aa5760403660031901126100aa57602061009861008f6101e2565b60243590610364565b6040516001600160a01b039091168152f35b5f80fd5b346100aa5760403660031901126100aa5760206100986100cc6101e2565b6024359061026a565b346100aa575f3660031901126100aa575f546040516001600160a01b039091168152602090f35b61019e565b346100aa5760403660031901126100aa57602061011c6101e2565b604051828101916bffffffffffffffffffffffff199060601b16825260243560348201526034815261014f6054826101f8565b519020604051908152f35b346100aa575f3660031901126100aa576040517f00000000000000000000000000000000000000000000000000000000000000006001600160a01b03168152602090f35b346100aa575f3660031901126100aa576040517f00000000000000000000000000000000000000000000000000000000000000006001600160a01b03168152602090f35b600435906001600160a01b03821682036100aa57565b90601f8019910116810190811067ffffffffffffffff82111761021a57604052565b634e487b7160e01b5f52604160045260245ffd5b6001600160a01b0390911681526040602080830182905283519183018290526060938291018484015e5f828201840152601f01601f1916010190565b60405163189acdbd60e31b60208201526001600160a01b039091166024808301919091528152600b919061029f6044826101f8565b6040519061033a61029d6102b660208201856101f8565b80845260208401906104c78239602060405193610309856102fb848201937f00000000000000000000000000000000000000000000000000000000000000008561022e565b03601f1981018752866101f8565b60405194859383850197518091895e840190838201905f8252519283915e01015f815203601f1981018352826101f8565b5190209060405191604083015260208201523081520160ff8153605590206001600160a01b031690565b61036e828261026a565b803b6104c0575060405163189acdbd60e31b60208201526001600160a01b0390911660248083018290528252906103a66044826101f8565b60405161044061029d6103bc60208201846101f8565b80835260208301906104c7823960206040519461040f86610401848201937f00000000000000000000000000000000000000000000000000000000000000008561022e565b03601f1981018852876101f8565b60405195869383850196518091885e840190838201905f8252519283915e01015f815203601f1981018452836101f8565b8151156104b157839151905ff5913d15198315166104a6576001600160a01b0383169081156104975760207ff66707ae2820569ece31cb5ac7cfcdd4d076c3f31ed9e28bf94394bedc0f329d91604051908152a390565b63b06ebf3d60e01b5f5260045ffd5b6040513d5f823e3d90fd5b631328927760e21b5f5260045ffd5b9150509056fe608060405261029d8038038061001481610168565b92833981016040828203126101645781516001600160a01b03811692909190838303610164576020810151906001600160401b03821161016457019281601f8501121561016457835161006e610069826101a1565b610168565b9481865260208601936020838301011161016457815f926020809301865e86010152823b15610152577f360894a13ba1a3210667c828492db98dca3e2076cc3735a920a3ca505d382bbc80546001600160a01b031916821790557fbc7cd75a20ee27fd9adebab32041f755214dbc6bffa90cc0225b39da2e5c2d3b5f80a282511561013a575f8091610122945190845af43d15610132573d91610113610069846101a1565b9283523d5f602085013e6101bc565b505b6040516082908161021b8239f35b6060916101bc565b50505034156101245763b398979f60e01b5f5260045ffd5b634c9c8ce360e01b5f5260045260245ffd5b5f80fd5b6040519190601f01601f191682016001600160401b0381118382101761018d57604052565b634e487b7160e01b5f52604160045260245ffd5b6001600160401b03811161018d57601f01601f191660200190565b906101e057508051156101d157805190602001fd5b63d6bda27560e01b5f5260045ffd5b81511580610211575b6101f1575090565b639996b31560e01b5f9081526001600160a01b0391909116600452602490fd5b50803b156101e956fe60806040527f360894a13ba1a3210667c828492db98dca3e2076cc3735a920a3ca505d382bbc545f9081906001600160a01b0316368280378136915af43d5f803e156048573d5ff35b3d5ffdfea26469706673582212205f975fcec1116362572d861e140e14adc5d9f77b979546d483a6b52f776ec71b64736f6c634300081c0033a26469706673582212204e5365684472c997b533b838556e9ac57d4cc4ee30772e09c25aa7a5609086ad64736f6c634300081c003360c03461016157601f611d4738819003918201601f19168301916001600160401b03831184841017610165578084926040948552833981010312610161578051906001600160a01b038216820361016157602001516001600160a01b0381169190829003610161573060805260a05260018060a01b031960015416176001555f516020611d275f395f51905f525460ff8160401c16610152576002600160401b03196001600160401b038216016100fc575b604051611bad908161017a82396080518181816105820152610695015260a051818181610215015281816103e00152818161048c015281816108c401528181610a780152610bd70152f35b6001600160401b0319166001600160401b039081175f516020611d275f395f51905f52556040519081527fc7f505b2f371ae2175ee4913f4499e1f2633a7b5936321eed1cdaeb6115181d290602090a15f6100b1565b63f92ee8a960e01b5f5260045ffd5b5f80fd5b634e487b7160e01b5f52604160045260245ffdfe608080604052600436101561004d575b50361561001a575f80fd5b604080513381523460208201527f88a5966d370b9919b20f3e2c13ff65706f196a4e32cc2c12bf57088f885258749190a1005b5f3560e01c90816301ffc9a714610b1657508063150b7a0214610ac05780633a871cdd14610a4557806344ab613f146104d557806347e1da2a146108505780634f1ef2861461064757806352c64e59146105d657806352d1902d146105705780638ce74426146105485780638da5cb5b14610521578063ad3cb1cc146104da578063b0d691fe146104d5578063b4644d9f14610471578063b61d27f6146103a5578063bc197c811461030d578063c4d66de81461016e5763f23a6e6114610114575f61000f565b3461016a5760a036600319011261016a5761012d610b69565b50610136610b7f565b506084356001600160401b03811161016a57610156903690600401610b95565b505060405163f23a6e6160e01b8152602090f35b5f80fd5b3461016a57602036600319011261016a57610187610b69565b5f516020611b585f395f51905f52549060ff8260401c1615916001600160401b03811680159081610305575b60011490816102fb575b1590816102f2575b506102e35767ffffffffffffffff1981166001175f516020611b585f395f51905f5255826102b7575b505f80546001600160a01b0319166001600160a01b039283169081178255604051939290917f0000000000000000000000000000000000000000000000000000000000000000909116907f21746608c4021c6b608c41f3001b41605e5feffb8219750f38bb7d9081b5e77e9080a361026257005b60207fc7f505b2f371ae2175ee4913f4499e1f2633a7b5936321eed1cdaeb6115181d29168ff0000000000000000195f516020611b585f395f51905f5254165f516020611b585f395f51905f525560018152a1005b68ffffffffffffffffff191668010000000000000001175f516020611b585f395f51905f5255826101ee565b63f92ee8a960e01b5f5260045ffd5b905015846101c5565b303b1591506101bd565b8491506101b3565b3461016a5760a036600319011261016a57610326610b69565b5061032f610b7f565b506044356001600160401b03811161016a5761034f903690600401610c06565b50506064356001600160401b03811161016a57610370903690600401610c06565b50506084356001600160401b03811161016a57610391903690600401610b95565b505060405163bc197c8160e01b8152602090f35b3461016a57606036600319011261016a576103be610b69565b6044356001600160401b03811161016a576103dd903690600401610b95565b917f00000000000000000000000000000000000000000000000000000000000000006001600160a01b0316330361046257825f93928493604051928392833781018481520391602435905af1610431610e1d565b90156104535761044f90604051918291602083526020830190610c36565b0390f35b637ff07d0d60e11b5f5260045ffd5b63bd07c55160e01b5f5260045ffd5b3461016a57604036600319011261016a5761048a610b7f565b7f00000000000000000000000000000000000000000000000000000000000000006001600160a01b03163303610462576104c961044f91600435610f03565b60405191829182610c5a565b610bc2565b3461016a575f36600319011261016a5761044f6040516104fb604082610cb9565b60058152640352e302e360dc1b6020820152604051918291602083526020830190610c36565b3461016a575f36600319011261016a575f546040516001600160a01b039091168152602090f35b3461016a575f36600319011261016a576001546040516001600160a01b039091168152602090f35b3461016a575f36600319011261016a577f00000000000000000000000000000000000000000000000000000000000000006001600160a01b031630036105c75760206040515f516020611b385f395f51905f528152f35b63703e46dd60e11b5f5260045ffd5b3461016a57602036600319011261016a576004356001600160401b03811161016a576106086040913690600401610b95565b908092918101031261016a5760208101356001600160a01b038116919082900361016a5760408051913582526001600160a01b03929092166020820152f35b604036600319011261016a5761065b610b69565b6024356001600160401b03811161016a573660238201121561016a5761068b903690602481600401359101610d09565b6001600160a01b037f00000000000000000000000000000000000000000000000000000000000000001630811490811561082e575b506105c7575f546001600160a01b031633141580610824575b610815576040516352d1902d60e01b81526001600160a01b0383169290602081600481875afa5f91816107e1575b5061071f5783634c9c8ce360e01b5f5260045260245ffd5b805f516020611b385f395f51905f528592036107cf5750813b156107bd575f516020611b385f395f51905f5280546001600160a01b031916821790557fbc7cd75a20ee27fd9adebab32041f755214dbc6bffa90cc0225b39da2e5c2d3b5f80a28151156107a5575f808360206107a395519101845af461079d610e1d565b91611ad9565b005b5050346107ae57005b63b398979f60e01b5f5260045ffd5b634c9c8ce360e01b5f5260045260245ffd5b632a87526960e21b5f5260045260245ffd5b9091506020813d60201161080d575b816107fd60209383610cb9565b8101031261016a57519085610707565b3d91506107f0565b635fc483c560e01b5f5260045ffd5b50303314156106d9565b5f516020611b385f395f51905f52546001600160a01b031614159050836106c0565b3461016a57606036600319011261016a576004356001600160401b03811161016a57610880903690600401610c06565b906024356001600160401b03811161016a576108a0903690600401610c06565b6044356001600160401b03811161016a576108bf903690600401610c06565b9290917f00000000000000000000000000000000000000000000000000000000000000006001600160a01b031633036104625780861480610a3c575b156109ff5761090986610dc4565b955f5b818110610921576040518061044f8a82610c5a565b61092c818389610e0d565b356001600160a01b038116810361016a57610948828587610e0d565b35878310156109eb575f9182916109648560051b8a018a610d3f565b9190826040519384928337810185815203925af190610981610e1d565b91156109a657600191610994828b610e69565b5261099f818a610e69565b500161090c565b60405162461bcd60e51b815260206004820152601c60248201527f5472616e73616374696f6e20657865637574696f6e206661696c6564000000006044820152606490fd5b634e487b7160e01b5f52603260045260245ffd5b60405162461bcd60e51b8152602060048201526015602482015274082e4e4c2f240d8cadccee8d040dad2e6dac2e8c6d605b1b6044820152606490fd5b508386146108fb565b3461016a57606036600319011261016a576004356001600160401b03811161016a57610160600319823603011261016a577f00000000000000000000000000000000000000000000000000000000000000006001600160a01b0316330361046257610ab860209160243590600401610d71565b604051908152f35b3461016a57608036600319011261016a57610ad9610b69565b50610ae2610b7f565b506064356001600160401b03811161016a57610b02903690600401610b95565b5050604051630a85bd0160e11b8152602090f35b3461016a57602036600319011261016a576004359063ffffffff60e01b821680920361016a576020916301ffc9a760e01b8114908115610b58575b5015158152f35b633a871cdd60e01b14905083610b51565b600435906001600160a01b038216820361016a57565b602435906001600160a01b038216820361016a57565b9181601f8401121561016a578235916001600160401b03831161016a576020838186019501011161016a57565b3461016a575f36600319011261016a576040517f00000000000000000000000000000000000000000000000000000000000000006001600160a01b03168152602090f35b9181601f8401121561016a578235916001600160401b03831161016a576020808501948460051b01011161016a57565b805180835260209291819084018484015e5f828201840152601f01601f1916010190565b602081016020825282518091526040820191602060408360051b8301019401925f915b838310610c8c57505050505090565b9091929394602080610caa600193603f198682030187528951610c36565b97019301930191939290610c7d565b90601f801991011681019081106001600160401b03821117610cda57604052565b634e487b7160e01b5f52604160045260245ffd5b6001600160401b038111610cda57601f01601f191660200190565b929192610d1582610cee565b91610d236040519384610cb9565b82948184528183011161016a578281602093845f960137010152565b903590601e198136030182121561016a57018035906001600160401b03821161016a5760200191813603831361016a57565b9061014082016020610d838285610d3f565b9050145f14610d9a575050610d97906117b8565b90565b610da790610d9793610d3f565b9161174e565b6001600160401b038111610cda5760051b60200190565b90610dce82610dad565b610ddb6040519182610cb9565b8281528092610dec601f1991610dad565b01905f5b828110610dfc57505050565b806060602080938501015201610df0565b91908110156109eb5760051b0190565b3d15610e47573d90610e2e82610cee565b91610e3c6040519384610cb9565b82523d5f602084013e565b606090565b8051156109eb5760200190565b8051600110156109eb5760400190565b80518210156109eb5760209160051b010190565b51906001600160a01b038216820361016a57565b51906001600160401b038216820361016a57565b81601f8201121561016a57805190610ebc82610cee565b92610eca6040519485610cb9565b8284526020838301011161016a57815f9260208093018386015e8301015290565b9081602091031261016a5751801515810361016a5790565b60015460405163789e235560e11b815260048101839052919391906001600160a01b03165f82602481845afa91821561125e575f9261157c575b5081516001600160a01b0316300361156d57610100820151421161155e576001600160401b0360c08301511646145f14611297575060015460405163030b2cc960e01b8152600481018690526001600160a01b0390911690602081602481855afa90811561125e575f91611278575b501561126957602060249160405192838092636eeee43f60e01b82528960048301525afa90811561125e575f9161122f575b506112205760e00151908151820191602083019060208185031261016a576020810151906001600160401b03821161016a570181603f8201121561016a5760208101519361102b85610dad565b946110396040519687610cb9565b8086526020808088019260051b850101019284841161016a5760408101915b84831061118f5750505050505061106f8251610dc4565b935f5b83518110156110e9575f806001600160a01b0361108f8488610e69565b515116602061109e8589610e69565b5101519060406110ae868a610e69565b51015191602083519301915af1906110c4610e1d565b9115610453576001916110d78289610e69565b526110e28188610e69565b5001611072565b50600154604051637fed1b6d60e01b60208201908152602482018490526001600160a01b038088166044840152949693955092935f93849390911691839061113e81606481015b03601f198101835282610cb9565b51925af161114a610e1d565b5015611180576001600160a01b0316907f7609c4682ba7f8b1ce404cb9cba36c78ce48c73460b8c8d57a1daca1842e80e85f80a3565b6369d4fa3b60e01b5f5260045ffd5b82516001600160401b03811161016a5782016020810191906060908603601f19011261016a5760405190606082018281106001600160401b03821117610cda576040526111de60208401610e7d565b8252604083015160208301526060830151916001600160401b03831161016a5761121089602080969581960101610ea5565b6040820152815201920191611058565b631d89003560e01b5f5260045ffd5b611251915060203d602011611257575b6112498183610cb9565b810190610eeb565b5f610fde565b503d61123f565b6040513d5f823e3d90fd5b63f19ce16160e01b5f5260045ffd5b611291915060203d602011611257576112498183610cb9565b5f610fac565b92935f929192945f5b608085015180518210156112ec576001600160401b036112c1834693610e69565b5116146112d1575b6001016112a0565b955060016112e38760a0870151610e69565b519690506112c9565b5050929490939194811561154f57606001516040516312335b5760e31b81526001600160401b03909116600482015260a081602481865afa801561125e575f906114c2575b6020915001906024602060018060a01b03845116604051928380926370a0823160e01b82523060048301525afa801561125e5782915f9161148d575b501061147e57905160405163095ea7b360e01b602082019081526001600160a01b03948516602483015260448201939093525f9384939216919083906113b68160648101611130565b51925af1916113c3610e1d565b921561045357600154604051631681f46560e01b6020820190815260248201939093526001600160a01b0393841660448201525f93849392169190839061140d8160648101611130565b51925af1611419610e1d565b90156104535760405191606061142f8185610cb9565b60028452601f19015f5b81811061146d57505061144b83610e4c565b5261145582610e4c565b5061145f82610e59565b5261146981610e59565b5090565b806060602080938801015201611439565b63356680b760e01b5f5260045ffd5b9150506020813d6020116114ba575b816114a960209383610cb9565b8101031261016a578190515f61136d565b3d915061149c565b5060a0813d60a011611547575b816114dc60a09383610cb9565b8101031261016a5760405160a081018181106001600160401b03821117610cda5760209260809160405261150f81610e91565b835261151c848201610e7d565b8484015261152c60408201610e7d565b60408401526060810151606084015201516080820152611331565b3d91506114cf565b632539125360e01b5f5260045ffd5b631022c88d60e21b5f5260045ffd5b6322e53e9b60e11b5f5260045ffd5b9091503d805f833e61158e8183610cb9565b81019060208183031261016a578051906001600160401b03821161016a5701906101208282031261016a576040519161012083018381106001600160401b03821117610cda576040526115e081610e7d565b83526115ee60208201610e91565b60208401526115ff60408201610e91565b604084015261161060608201610e91565b606084015260808101516001600160401b03811161016a57810182601f8201121561016a5780519061164182610dad565b9161164f6040519384610cb9565b80835260208084019160051b8301019185831161016a57602001905b82821061173657505050608084015260a08101516001600160401b03811161016a57810182601f8201121561016a578051906116a682610dad565b916116b46040519384610cb9565b80835260208084019160051b8301019185831161016a57602001905b8282106117265750505060a08401526116eb60c08201610e91565b60c084015260e08101516001600160401b03811161016a5761010092611712918301610ea5565b60e08401520151610100820152905f610f3d565b81518152602091820191016116d0565b6020809161174384610e91565b81520191019061166b565b9161178c6117929261179b947f19457468657265756d205369676e6564204d6573736167653a0a3332000000005f52601c52603c5f20923691610d09565b906119a9565b909291926119e3565b5f546001600160a01b039081169116036117b3575f90565b600190565b6117c6610140820182610d3f565b903590602081106118b3575b509081156118ac576060810160046117ea8284610d3f565b9050106118a4576117fb8183610d3f565b60041161016a57634b9bb26160e01b90356001600160e01b031916016118a457611829839161182f93610d3f565b906118c4565b1561189e57600154604051635008dd8d60e01b81526004810192909252306024830152602090829060449082906001600160a01b03165afa90811561125e575f9161187f575b50156117b3575f90565b611898915060203d602011611257576112498183610cb9565b5f611875565b50600190565b505050600190565b5050600190565b5f199060200360031b1b165f6117d2565b919091604483106119a2578260041161016a5760046044604092600319860195845196879485936352c64e5960e01b855260208286015282602486015201848401375f828201860152601b01601f19168101030181305afa90815f935f93611960575b50611933575050505f90565b82149182611956575b5081611946575090565b6001600160a01b03161515919050565b151591505f61193c565b935091506040833d60401161199a575b8161197d60409383610cb9565b8101031261016a57611993602084519401610e7d565b915f611927565b3d9150611970565b5050505f90565b81519190604183036119d9576119d29250602082015190606060408401519301515f1a90611a57565b9192909190565b50505f9160029190565b6004811015611a4357806119f5575050565b60018103611a0c5763f645eedf60e01b5f5260045ffd5b60028103611a27575063fce698f760e01b5f5260045260245ffd5b600314611a315750565b6335e2f38360e21b5f5260045260245ffd5b634e487b7160e01b5f52602160045260245ffd5b91907f7fffffffffffffffffffffffffffffff5d576e7357a4501ddfe92f46681b20a08411611ace579160209360809260ff5f9560405194855216868401526040830152606082015282805260015afa1561125e575f516001600160a01b03811615611ac457905f905f90565b505f906001905f90565b5050505f9160039190565b90611afd5750805115611aee57805190602001fd5b63d6bda27560e01b5f5260045ffd5b81511580611b2e575b611b0e575090565b639996b31560e01b5f9081526001600160a01b0391909116600452602490fd5b50803b15611b0656fe360894a13ba1a3210667c828492db98dca3e2076cc3735a920a3ca505d382bbcf0c57e16840df040f15088dc2f81fe391c3923bec73e23a9662efc9c229c6a00a26469706673582212209ab46e8b3029d760ae46d1bebfea1c4243142fd2b03ed815d6f82a6a2beadc6764736f6c634300081c0033f0c57e16840df040f15088dc2f81fe391c3923bec73e23a9662efc9c229c6a00a2646970667358221220b274a0e725ad45bd39edf62a43408cfe3b42b9b38641f893a232a923f9ad286364736f6c634300081c0033",
  "linkReferences": {},
  "deployedLinkReferences": {},
  "immutableReferences": {},
  "inputSourceName": "contracts/factory/ImplementationDeployer.sol",
  "buildInfoId": "62687778d0f28154923caa6b31f558fad03f940d"
}